00IMBARQ0060010000935BVMF    0000000000009350000000012022040520220405
01935            77             935            77             702117                             8                                  BVMFDI1N22                             BRBMEFD1I3X70020000100000DI1                           N22 00000000000000000000            000000000000000000000000000000000000 0000000000 2022-07-012022-04-051000000000001000 000000000000000 000000000000000000000000000000000000000000000 000000000000000000000000000000000000000000000 00000000000000010000000000010000000000000000001000000000001000000000000000000000000000000000000000000000000 0000000000000000000000000972268400000000000000000000000D00000000000000109000D00000000000000109000 00000000000000000000 00000000000000000000C00000000047902741000 00000000000000000000 00000000000000000000       00000000000000000000000 00000000000000000000000 00000000000000000000000 00000000000000000000000    00000000000000000000000 00000000000000000000000 00000000000000000000000 00000000000000000000000 00000000000000000000
01935            77             935            77             5200588                            8                                  BVMFDAPQ22                             BRBMEFDAP1160020000000025DAP                           Q22 00000000000000000000            000000000000000000000000000000000000 0000000000 2022-08-152022-04-051000000000000310 000000000000000 000000000000000000000000000000000000000000000 000000000000000000000000000000000000000000000 00000000000000010000000000003100000000000000001000000000000310000000000000000000000000000000000000000000000 0000000000000000000000000475814505000000000000000000000C00000000000000390290C00000000000000390290 00000000000000000000 00000000000000000000C00000000016905525184 00000000000000000000 00000000000000000000       00000000000000000000000 00000000000000000000000 00000000000000000000000 00000000000000000000000    00000000000000000000000 00000000000000000000000 00000000000000000000000 00000000000000000000000 00000000000000000000
01935            77             935            77             200000757822                       8                                  BVMFBRIVIZ22                           BRBRIV1Z00050020000100000BRIVI                         Z22 00000000000000000000            000000000000000000000000000000000000 0000000000 2022-12-192022-04-052000000000001817 000000000000000 000000000000000000000000000000000000000000000 000000000000000000000000000000000000000000000 00000000000000020000000000018170000000000000002000000000001817000000000000000000000000000000000000000000000 0000000000000000000000000000000000000000000000000908500C00000000000000908500C00000000000000908500 00000000000000000000 00000000000000000000C00000000000015444500 00000000000000000000 00000000000000000000       00000000000000000000000 00000000000000000000000 00000000000000000000000 00000000000000000000000    00000000000000000000000 00000000000000000000000 00000000000000000000000 00000000000000000000000 00000000000000000000
01935            77             935            77             200000757701                       8                                  BVMFAZEVOZ22                           BRAZEV3Z00070020000100000AZEVO                         Z22 00000000000000000000            000000000000000000000000000000000000 0000000000 2022-12-162022-04-052000000000000099 000000000000000 000000000000000000000000000000000000000000000 000000000000000000000000000000000000000000000 00000000000000020000000000000990000000000000002000000000000099000000000000000000000000000000000000000000000 0000000000000000000000000000000000000000000000000049500C00000000000000049500C00000000000000049500 00000000000000000000 00000000000000000000C00000000000025473500 00000000000000000000 00000000000000000000       00000000000000000000000 00000000000000000000000 00000000000000000000000 00000000000000000000000    00000000000000000000000 00000000000000000000000 00000000000000000000000 00000000000000000000000 00000000000000000000
01935            77             935            77             200000757686                       8                                  BVMFAZEVL510                           BRAZEV3L00030700010000000AZEV                              00000000000000000124BRAZEVACNOR0000000012400000000000000102660000000C000000000112022-12-212022-04-052000000000000049 000000000000000 000000000000000000000000000000000000000000000 000000000000000000000000000000000000000000000 00000000000000020000000000000490000000000000002000000000000049000000000000047000000000000002000000000000000 0000000000000000000000000000000000000000000000000000049 00000000000000000000 00000000000000000000 00000000000000000000 00000000000000000000 00000000000000000000 00000000000000000000 00000000000000000000       00000000000000000000000 00000000000000000000000 00000000000000000000000 00000000000000000000000    00000000000000000000000 00000000000000000000000 00000000000000000000000 00000000000000000000000 00000000000000000000
01935            77             935            77             200000757608                       8                                  BVMFDAPM22                             BRBMEFDAP5J70020000000025DAP                           M22 00000000000000000000            000000000000000000000000000000000000 0000000000 2022-06-152022-04-051000000000000960 000000000000000 000000000000000000000000000000000000000000000 000000000000000000000000000000000000000000000 00000000000000010000000000009600000000000000001000000000000960000000000000000000000000000000000000000000000 0000000000000000000000001489864512000000000000000000000C00000000000000463680C00000000000000463680 00000000000000000000 00000000000000000000C00000000051594388680 00000000000000000000 00000000000000000000       00000000000000000000000 00000000000000000000000 00000000000000000000000 00000000000000000000000    00000000000000000000000 00000000000000000000000 00000000000000000000000 00000000000000000000000 00000000000000000000
01935            77             935            77             200000757607                       8                                  BVMFDAPK22                             BRBMEFDAP5I90020000000025DAP                           K22 00000000000000000000            000000000000000000000000000000000000 0000000000 2022-05-162022-04-051000000000001040 000000000000000 000000000000000000000000000000000000000000000 000000000000000000000000000000000000000000000 00000000000000010000000000010400000000000000001000000000001040000000000000000000000000000000000000000000000 0000000000000000000000001629019184000000000000000000000C00000000000000816400C00000000000000816400 00000000000000000000 00000000000000000000C00000000056211273170 00000000000000000000 00000000000000000000       00000000000000000000000 00000000000000000000000 00000000000000000000000 00000000000000000000000    00000000000000000000000 00000000000000000000000 00000000000000000000000 00000000000000000000000 00000000000000000000
01935            77             935            77             200000757606                       8                                  BVMFDAPJ22                             BRBMEFDAP5H10020000000025DAP                           J22 00000000000000000000            000000000000000000000000000000000000 0000000000 2022-04-182022-04-051000000000001490 000000000000000 000000000000000000000000000000000000000000000 000000000000000000000000000000000000000000000 00000000000000010000000000014900000000000000001000000000001490000000000000000000000000000000000000000000000 0000000000000000000000002335857504000000000000000000000D00000000000001428910D00000000000001428910 00000000000000000000 00000000000000000000C00000000073822427185 00000000000000000000 00000000000000000000       00000000000000000000000 00000000000000000000000 00000000000000000000000 00000000000000000000000    00000000000000000000000 00000000000000000000000 00000000000000000000000 00000000000000000000000 00000000000000000000
01935            77             935            77             200000698324                       8                                  BVMFDI1X22                             BRBMEFD1I7510020000100000DI1                           X22 00000000000000000000            000000000000000000000000000000000000 0000000000 2022-11-012022-04-051000000000002200 000000000000000 000000000000000000000000000000000000000000000 000000000000000000000000000000000000000000000 00000000000000010000000000022000000000000000001000000000002200000000000000000000000000000000000000000000000 0000000000000000000000002053770840000000000000000000000D00000000000000367400D00000000000000367400 00000000000000000000 00000000000000000000C00000000100341101400 00000000000000000000 00000000000000000000       00000000000000000000000 00000000000000000000000 00000000000000000000000 00000000000000000000000    00000000000000000000000 00000000000000000000000 00000000000000000000000 00000000000000000000000 00000000000000000000
01935            77             935            77             200000582817                       8                                  BVMFDDIK22                             BRBMEFDDI7010020000050000DDI                           K22 00000000000000000000            000000000000000000000000000000000000 0000000000 2022-05-022022-04-052000000000001210 000000000000000 000000000000000000000000000000000000000000000 000000000000000000000000000000000000000000000 00000000000000020000000000012100000000000000002000000000001210000000000000000000000000000000000000000000000 0000000000000000000000000000000000000000000027891593840C00000000000321500630C00000000000321500630 00000000000000000000 00000000000000000000D00000000115387304436 00000000000000000000 00000000000000000000       00000000000000000000000 00000000000000000000000 00000000000000000000000 00000000000000000000000    00000000000000000000000 00000000000000000000000 00000000000000000000000 00000000000000000000000 00000000000000000000
01935            77             935            77             200000582816                       8                                  BVMFDI1K22                             BRBMEFD1I7020020000100000DI1                           K22 00000000000000000000            000000000000000000000000000000000000 0000000000 2022-05-022022-04-051000000000000240 000000000000000 000000000000000000000000000000000000000000000 000000000000000000000000000000000000000000000 00000000000000010000000000002400000000000000001000000000000240000000000000000000000000000000000000000000000 0000000000000000000000000238117680000000000000000000000C00000000000000000480C00000000000000000480 00000000000000000000 00000000000000000000C00000000009418316430 00000000000000000000 00000000000000000000       00000000000000000000000 00000000000000000000000 00000000000000000000000 00000000000000000000000    00000000000000000000000 00000000000000000000000 00000000000000000000000 00000000000000000000000 00000000000000000000
01935            77             935            77             200000397422                       8                                  BVMFPETRP180                           BRPETR4P0U420800010000000PETR                              00000000000000000201BRPETRACNPR6000000020100000000000000000125100000P000000000122022-04-142022-04-051000000000010000 000000000000000 000000000000000000000000000000000000000000000 000000000000000000000000000000000000000000000 00000000000000010000000000100000000000000000001000000000010000000000000000000000000000000000000000000000000 0000000000000000000000000000001000000000000000000000000 00000000000000000000 00000000000000000000 00000000000000000000 00000000000000000000 00000000000000000000 00000000000000000000 00000000000000000000       00000000000000000000000 00000000000000000000000 00000000000000000000000 00000000000000000000000    00000000000000000000000 00000000000000000000000 00000000000000000000000 00000000000000000000000 00000000000000000000
01935            77             935            77             200000397162                       8                                  BVMFPETRD150                           BRPETR4D0U140700010000000PETR                              00000000000000000201BRPETRACNPR6000000020100000000000000000095100000C000000000112022-04-142022-04-051000000000010000 000000000000000 000000000000000000000000000000000000000000000 000000000000000000000000000000000000000000000 00000000000000010000000000100000000000000000001000000000010000000000000000000000000000000000000000000000000 0000000000000000000000000002282000000000000000000000000 00000000000000000000 00000000000000000000 00000000000000000000 00000000000000000000 00000000000000000000 00000000000000000000 00000000000000000000       00000000000000000000000 00000000000000000000000 00000000000000000000000 00000000000000000000000    00000000000000000000000 00000000000000000000000 00000000000000000000000 00000000000000000000000 00000000000000000000
01935            77             935            77             100000157235                       8                                  BVMFDI1U22                             BRBMEFD1I7360020000100000DI1                           U22 00000000000000000000            000000000000000000000000000000000000 0000000000 2022-09-012022-04-051000000000000060 000000000000000 000000000000000000000000000000000000000000000 000000000000000000000000000000000000000000000 00000000000000010000000000000600000000000000001000000000000060000000000000000000000000000000000000000000000 0000000000000000000000000057119106000000000000000000000D00000000000000014100D00000000000000014100 00000000000000000000 00000000000000000000C00000000001504112880 00000000000000000000 00000000000000000000       00000000000000000000000 00000000000000000000000 00000000000000000000000 00000000000000000000000    00000000000000000000000 00000000000000000000000 00000000000000000000000 00000000000000000000000 00000000000000000000
01935            77             935            77             100000155166                       8                                  BVMFDDIM22                             BRBMEFDDI7190020000050000DDI                           M22 00000000000000000000            000000000000000000000000000000000000 0000000000 2022-06-012022-04-051000000000000090 000000000000000 000000000000000000000000000000000000000000000 000000000000000000000000000000000000000000000 00000000000000010000000000000900000000000000001000000000000090000000000000000000000000000000000000000000000 0000000000000000000000000207285552000000000000000000000D00000000000023925600D00000000000023925600 00000000000000000000 00000000000000000000C00000000004962680070 00000000000000000000 00000000000000000000       00000000000000000000000 00000000000000000000000 00000000000000000000000 00000000000000000000000    00000000000000000000000 00000000000000000000000 00000000000000000000000 00000000000000000000000 00000000000000000000
01935            77             935            77             100000155165                       8                                  BVMFDI1M22                             BRBMEFD1I7100020000100000DI1                           M22 00000000000000000000            000000000000000000000000000000000000 0000000000 2022-06-012022-04-052000000000000810 000000000000000 000000000000000000000000000000000000000000000 000000000000000000000000000000000000000000000 00000000000000020000000000008100000000000000002000000000000810000000000000000000000000000000000000000000000 0000000000000000000000000000000000000000000007954354710C00000000000000101250C00000000000000101250 00000000000000000000 00000000000000000000D00000000039285007384 00000000000000000000 00000000000000000000       00000000000000000000000 00000000000000000000000 00000000000000000000000 00000000000000000000000    00000000000000000000000 00000000000000000000000 00000000000000000000000 00000000000000000000000 00000000000000000000
01935            77             935            77             100000139431                       8                                  BVMFDAPK55                             BRBMEFDAP3D50020000000025DAP                           K55 00000000000000000000            000000000000000000000000000000000000 0000000000 2055-05-172022-04-051000000000002220 000000000000000 000000000000000000000000000000000000000000000 000000000000000000000000000000000000000000000 00000000000000010000000000022200000000000000001000000000002220000000000000000000000000000000000000000000000 0000000000000000000000000658062612000000000000000000000C00000000000043243380C00000000000043243380 00000000000000000000 00000000000000000000C00000000007014955780 00000000000000000000 00000000000000000000       00000000000000000000000 00000000000000000000000 00000000000000000000000 00000000000000000000000    00000000000000000000000 00000000000000000000000 00000000000000000000000 00000000000000000000000 00000000000000000000
01935            77             935            77             100000139430                       8                                  BVMFDAPQ50                             BRBMEFDAP3C70020000000025DAP                           Q50 00000000000000000000            000000000000000000000000000000000000 0000000000 2050-08-152022-04-052000000000000550 000000000000000 000000000000000000000000000000000000000000000 000000000000000000000000000000000000000000000 00000000000000020000000000005500000000000000002000000000000550000000000000000000000000000000000000000000000 0000000000000000000000000000000000000000000002036631850D00000000000011558800D00000000000011558800 00000000000000000000 00000000000000000000D00000000004911465250 00000000000000000000 00000000000000000000       00000000000000000000000 00000000000000000000000 00000000000000000000000 00000000000000000000000    00000000000000000000000 00000000000000000000000 00000000000000000000000 00000000000000000000000 00000000000000000000
01935            77             935            77             100000139429                       8                                  BVMFDAPK45                             BRBMEFDAP3B90020000000025DAP                           K45 00000000000000000000            000000000000000000000000000000000000 0000000000 2045-05-152022-04-052000000000000560 000000000000000 000000000000000000000000000000000000000000000 000000000000000000000000000000000000000000000 00000000000000020000000000005600000000000000002000000000000560000000000000000000000000000000000000000000000 0000000000000000000000000000000000000000000002713751600D00000000000018625040D00000000000018625040 00000000000000000000 00000000000000000000D00000000007454314500 00000000000000000000 00000000000000000000       00000000000000000000000 00000000000000000000000 00000000000000000000000 00000000000000000000000    00000000000000000000000 00000000000000000000000 00000000000000000000000 00000000000000000000000 00000000000000000000
01935            77             935            77             100000132647                       8                                  BVMFDOLF24C004950                      BRBMEFCDFXH10030005000000DOL                           FS8B00000000000000000000            000000000000000000000000049500000000C000000000022024-01-022022-04-052000000000000050 000000000000000 000000000000000000000000000000000000000000000 000000000000000000000000000000000000000000000 00000000000000020000000000000500000000000000002000000000000050000000000000000000000000000000000000000000000 0000000000000000000000000000000000000000000000141142750 00000000000000000000 00000000000000000000 00000000000000000000 00000000000000000000 00000000000000000000 00000000000000000000 00000000000000000000       00000000000000000000000 00000000000000000000000 00000000000000000000000 00000000000000000000000    00000000000000000000000 00000000000000000000000 00000000000000000000000 00000000000000000000000 00000000000000000000
01935            77             935            77             100000093479                       8                                  BVMFDI1V22                             BRBMEFD1I5L70020000100000DI1                           V22 00000000000000000000            000000000000000000000000000000000000 0000000000 2022-10-032022-04-052000000000000550 000000000000000 000000000000000000000000000000000000000000000 000000000000000000000000000000000000000000000 00000000000000020000000000005500000000000000002000000000000550000000000000000000000000000000000000000000000 0000000000000000000000000000000000000000000005183607000C00000000000000177100C00000000000000177100 00000000000000000000 00000000000000000000D00000000025412560750 00000000000000000000 00000000000000000000       00000000000000000000000 00000000000000000000000 00000000000000000000000 00000000000000000000000    00000000000000000000000 00000000000000000000000 00000000000000000000000 00000000000000000000000 00000000000000000000
01935            77             935            77             100000089298                       8                                  BVMFDDIN22                             BRBMEFDDI5K10020000050000DDI                           N22 00000000000000000000            000000000000000000000000000000000000 0000000000 2022-07-012022-04-051000000000000090 000000000000000 000000000000000000000000000000000000000000000 000000000000000000000000000000000000000000000 00000000000000010000000000000900000000000000001000000000000090000000000000000000000000000000000000000000000 0000000000000000000000000207099117000000000000000000000D00000000000024012720D00000000000024012720 00000000000000000000 00000000000000000000C00000000004959601590 00000000000000000000 00000000000000000000       00000000000000000000000 00000000000000000000000 00000000000000000000000 00000000000000000000000    00000000000000000000000 00000000000000000000000 00000000000000000000000 00000000000000000000000 00000000000000000000
01935            2              935            2              5200588                            8                                  BVMFDAPQ22                             BRBMEFDAP1160020000000025DAP                           Q22 00000000000000000000            000000000000000000000000000000000000 0000000000 2022-08-152022-04-052000000000000106 000000000000000 000000000000000000000000000000000000000000000 000000000000000000000000000000000000000000000 00000000000000020000000000001060000000000000002000000000000106000000000000000000000000000000000000000000000 0000000000000000000000000000000000000000000001626978630D00000000000000133454D00000000000000133454 00000000000000000000 00000000000000000000D00000000009548493621 00000000000000000000 00000000000000000000       00000000000000000000000 00000000000000000000000 00000000000000000000000 00000000000000000000000    00000000000000000000000 00000000000000000000000 00000000000000000000000 00000000000000000000000 00000000000000000000
01935            2              935            2              200000757822                       8                                  BVMFBRIVIZ22                           BRBRIV1Z00050020000100000BRIVI                         Z22 00000000000000000000            000000000000000000000000000000000000 0000000000 2022-12-192022-04-052000000000001817 000000000000000 000000000000000000000000000000000000000000000 000000000000000000000000000000000000000000000 00000000000000020000000000018170000000000000002000000000001817000000000000000000000000000000000000000000000 0000000000000000000000000000000000000000000000000908500C00000000000000908500C00000000000000908500 00000000000000000000 00000000000000000000C00000000000015444500 00000000000000000000 00000000000000000000       00000000000000000000000 00000000000000000000000 00000000000000000000000 00000000000000000000000    00000000000000000000000 00000000000000000000000 00000000000000000000000 00000000000000000000000 00000000000000000000
01935            2              935            2              200000757701                       8                                  BVMFAZEVOZ22                           BRAZEV3Z00070020000100000AZEVO                         Z22 00000000000000000000            000000000000000000000000000000000000 0000000000 2022-12-162022-04-052000000000000059 000000000000000 000000000000000000000000000000000000000000000 000000000000000000000000000000000000000000000 00000000000000020000000000000590000000000000002000000000000059000000000000000000000000000000000000000000000 0000000000000000000000000000000000000000000000000029500C00000000000000029500C00000000000000029500 00000000000000000000 00000000000000000000C00000000000014813500 00000000000000000000 00000000000000000000       00000000000000000000000 00000000000000000000000 00000000000000000000000 00000000000000000000000    00000000000000000000000 00000000000000000000000 00000000000000000000000 00000000000000000000000 00000000000000000000
01935            2              935            2              200000757686                       8                                  BVMFAZEVL510                           BRAZEV3L00030700010000000AZEV                              00000000000000000124BRAZEVACNOR0000000012400000000000000102660000000C000000000112022-12-212022-04-052000000000000049 000000000000000 000000000000000000000000000000000000000000000 000000000000000000000000000000000000000000000 00000000000000020000000000000490000000000000002000000000000049000000000000047000000000000002000000000000000 0000000000000000000000000000000000000000000000000000049 00000000000000000000 00000000000000000000 00000000000000000000 00000000000000000000 00000000000000000000 00000000000000000000 00000000000000000000       00000000000000000000000 00000000000000000000000 00000000000000000000000 00000000000000000000000    00000000000000000000000 00000000000000000000000 00000000000000000000000 00000000000000000000000 00000000000000000000
01935            2              935            2              200000757680                       8                                  BVMFBITK22                             BRBMEFBIT0400020000010000BIT                           K22 00000000000000000000            000000000000000000000000000000000000 0000000000 2022-05-272022-04-052000000000002425 000000000000000 000000000000000000000000000000000000000000000 000000000000000000000000000000000000000000000 00000000000000020000000000024250000000000000002000000000002425000000000000000000000000000000000000000000000 0000000000000000000000000000000000000000000000000121250 00000000000000000000 00000000000000000000 00000000000000000000 00000000000000000000C00000000001831900921 00000000000000000000 00000000000000000000       00000000000000000000000 00000000000000000000000 00000000000000000000000 00000000000000000000000    00000000000000000000000 00000000000000000000000 00000000000000000000000 00000000000000000000000 00000000000000000000
01935            2              935            2              200000757679                       8                                  BVMFBITJ22                             BRBMEFBIT0320020000010000BIT                           J22 00000000000000000000            000000000000000000000000000000000000 0000000000 2022-04-292022-04-051000000000001220 000000000000000 000000000000000000000000000000000000000000000 000000000000000000000000000000000000000000000 00000000000000010000000000012200000000000000001000000000001220000000000000000000000000000000000000000000000 0000000000000000000000000000006100000000000000000000000 00000000000000000000 00000000000000000000 00000000000000000000 00000000000000000000C00000000000000048486 00000000000000000000 00000000000000000000       00000000000000000000000 00000000000000000000000 00000000000000000000000 00000000000000000000000    00000000000000000000000 00000000000000000000000 00000000000000000000000 00000000000000000000000 00000000000000000000
01935            2              935            2              200000745848                       8                                  BVMFCCMF23                             BRBMEFCCP2H70020045000000CCM                           F23 00000000000000000000            000000000000000000000000000000000000 0000000000 2023-01-162022-04-051000000000001210 000000000000000 000000000000000000000000000000000000000000000 000000000000000000000000000000000000000000000 00000000000000010000000000012100000000000000001000000000001210000000000000000000000000000000000000000000000 0000000000000000000000000493534800000000000000000000000D00000000000041926500D00000000000041926500 00000000000000000000 00000000000000000000C00000000004826448000 00000000000000000000 00000000000000000000       00000000000000000000000 00000000000000000000000 00000000000000000000000 00000000000000000000000    00000000000000000000000 00000000000000000000000 00000000000000000000000 00000000000000000000000 00000000000000000000
01935            2              935            2              200000657370                       8                                  BVMFETHJ22                             BRBMEFETH3Z60020003000000ETH                           J22 00000000000000000000            000000000000000000000000000000000000 0000000000 2022-04-292022-04-051000000000005610 000000000000000 000000000000000000000000000000000000000000000 000000000000000000000000000000000000000000000 00000000000000010000000000056100000000000000001000000000005610000000000000000000000000000000000000000000000 0000000000000000000000005355306000000000000000000000000 00000000000000000000 00000000000000000000 00000000000000000000 00000000000000000000C00000000053519400000 00000000000000000000 00000000000000000000       00000000000000000000000 00000000000000000000000 00000000000000000000000 00000000000000000000000    00000000000000000000000 00000000000000000000000 00000000000000000000000 00000000000000000000000 00000000000000000000
01935            2              935            2              200000582817                       8                                  BVMFDDIK22                             BRBMEFDDI7010020000050000DDI                           K22 00000000000000000000            000000000000000000000000000000000000 0000000000 2022-05-022022-04-052000000000000110 000000000000000 000000000000000000000000000000000000000000000 000000000000000000000000000000000000000000000 00000000000000020000000000001100000000000000002000000000000110000000000000000000000000000000000000000000000 0000000000000000000000000000000000000000000002535599440C00000000000029227330C00000000000029227330 00000000000000000000 00000000000000000000D00000000021834004005 00000000000000000000 00000000000000000000       00000000000000000000000 00000000000000000000000 00000000000000000000000 00000000000000000000000    00000000000000000000000 00000000000000000000000 00000000000000000000000 00000000000000000000000 00000000000000000000
01935            2              935            2              100000163426                       8                                  BVMFISPU22                             BRBMEFISP1740020005000000ISP                           U22 00000000000000000000            000000000000000000000000000000000000 0000000000 2022-09-162022-04-051000000000005610 000000000000000 000000000000000000000000000000000000000000000 000000000000000000000000000000000000000000000 00000000000000010000000000056100000000000000001000000000005610000000000000000000000000000000000000000000000 0000000000000000000000059472880665000000000000000000000C00000000004725460080C00000000004725460080 00000000000000000000 00000000000000000000C00000000150661337460 00000000000000000000 00000000000000000000       00000000000000000000000 00000000000000000000000 00000000000000000000000 00000000000000000000000    00000000000000000000000 00000000000000000000000 00000000000000000000000 00000000000000000000000 00000000000000000000
01935            2              935            2              100000163181                       8                                  BVMFWSPM22                             BRBMEFWSP0E60020000250000WSP                           M22 00000000000000000000            000000000000000000000000000000000000 0000000000 2022-06-172022-04-051000000000003600 000000000000000 000000000000000000000000000000000000000000000 000000000000000000000000000000000000000000000 00000000000000010000000000036000000000000000001000000000003600000000000000000000000000000000000000000000000 0000000000000000000000001901366640000000000000000000000C00000000000144349200C00000000000144349200 00000000000000000000 00000000000000000000C00000000006098098300 00000000000000000000 00000000000000000000       00000000000000000000000 00000000000000000000000 00000000000000000000000 00000000000000000000000    00000000000000000000000 00000000000000000000000 00000000000000000000000 00000000000000000000000 00000000000000000000
01935            2              935            2              100000155560                       8                                  BVMFBGIV22                             BRBMEFBGI6330020033000000BGI                           V22 00000000000000000000            000000000000000000000000000000000000 0000000000 2022-10-312022-04-051000000000005610 000000000000000 000000000000000000000000000000000000000000000 000000000000000000000000000000000000000000000 00000000000000010000000000056100000000000000001000000000005610000000000000000000000000000000000000000000000 0000000000000000000000006128728650000000000000000000000D00000000000712750500D00000000000712750500 00000000000000000000 00000000000000000000C00000000060917026500 00000000000000000000 00000000000000000000       00000000000000000000000 00000000000000000000000 00000000000000000000000 00000000000000000000000    00000000000000000000000 00000000000000000000000 00000000000000000000000 00000000000000000000000 00000000000000000000
01935            2              935            2              100000155165                       8                                  BVMFDI1M22                             BRBMEFD1I7100020000100000DI1                           M22 00000000000000000000            000000000000000000000000000000000000 0000000000 2022-06-012022-04-052000000000000102 000000000000000 000000000000000000000000000000000000000000000 000000000000000000000000000000000000000000000 00000000000000020000000000001020000000000000002000000000000102000000000000000000000000000000000000000000000 0000000000000000000000000000000000000000000001001659482C00000000000000012750C00000000000000012750 00000000000000000000 00000000000000000000D00000000006922299309 00000000000000000000 00000000000000000000       00000000000000000000000 00000000000000000000000 00000000000000000000000 00000000000000000000000    00000000000000000000000 00000000000000000000000 00000000000000000000000 00000000000000000000000 00000000000000000000
01935            2              935            2              100000147996                       8                                  BVMFICFK22                             BRBMEFICF2U60020010000000ICF                           K22 00000000000000000000            000000000000000000000000000000000000 0000000000 2022-05-232022-04-051000000000005610 000000000000000 000000000000000000000000000000000000000000000 000000000000000000000000000000000000000000000 00000000000000010000000000056100000000000000001000000000005610000000000000000000000000000000000000000000000 0000000000000000000000007409268933000000000000000000000C00000000000815626680C00000000000815626680 00000000000000000000 00000000000000000000C00000000014234896900 00000000000000000000 00000000000000000000       00000000000000000000000 00000000000000000000000 00000000000000000000000 00000000000000000000000    00000000000000000000000 00000000000000000000000 00000000000000000000000 00000000000000000000000 00000000000000000000
01935            2              935            2              100000145161                       8                                  BVMFINDG23                             BRBMEFIBV3A70020000100000IND                           G23 00000000000000000000            000000000000000000000000000000000000 0000000000 2023-02-152022-04-051000000000005610 000000000000000 000000000000000000000000000000000000000000000 000000000000000000000000000000000000000000000 00000000000000010000000000056100000000000000001000000000005610000000000000000000000000000000000000000000000 0000000000000000000000007441665000000000000000000000000D00000000000228888000D00000000000228888000 00000000000000000000 00000000000000000000C00000000074415528000 00000000000000000000 00000000000000000000       00000000000000000000000 00000000000000000000000 00000000000000000000000 00000000000000000000000    00000000000000000000000 00000000000000000000000 00000000000000000000000 00000000000000000000000 00000000000000000000
01935            2              935            2              100000143026                       8                                  BVMFINDZ22                             BRBMEFIBV3920020000100000IND                           Z22 00000000000000000000            000000000000000000000000000000000000 0000000000 2022-12-142022-04-051000000000005610 000000000000000 000000000000000000000000000000000000000000000 000000000000000000000000000000000000000000000 00000000000000010000000000056100000000000000001000000000005610000000000000000000000000000000000000000000000 0000000000000000000000007305398100000000000000000000000D00000000000226083000D00000000000226083000 00000000000000000000 00000000000000000000C00000000073052859000 00000000000000000000 00000000000000000000       00000000000000000000000 00000000000000000000000 00000000000000000000000 00000000000000000000000    00000000000000000000000 00000000000000000000000 00000000000000000000000 00000000000000000000000 00000000000000000000
01935            2              935            2              100000140784                       8                                  BVMFDOLV23                             BRBMEFDOL6E40020005000000DOL                           V23 00000000000000000000            000000000000000000000000000000000000 0000000000 2023-10-022022-04-051000000000003600 000000000000000 000000000000000000000000000000000000000000000 000000000000000000000000000000000000000000000 00000000000000010000000000036000000000000000001000000000003600000000000000000000000000000000000000000000000 0000000000000000000000009438775200000000000000000000000D00000000001193922000D00000000001193922000 00000000000000000000 00000000000000000000C00000000094351752000 00000000000000000000 00000000000000000000       00000000000000000000000 00000000000000000000000 00000000000000000000000 00000000000000000000000    00000000000000000000000 00000000000000000000000 00000000000000000000000 00000000000000000000000 00000000000000000000
01935            2              935            2              100000137269                       8                                  BVMFWINQ22                             BRBMEFWIN2Z10020000020000WIN                           Q22 00000000000000000000            000000000000000000000000000000000000 0000000000 2022-08-172022-04-051000000000005610 000000000000000 000000000000000000000000000000000000000000000 000000000000000000000000000000000000000000000 00000000000000010000000000056100000000000000001000000000005610000000000000000000000000000000000000000000000 0000000000000000000000001413058020000000000000000000000D00000000000043197000D00000000000043197000 00000000000000000000 00000000000000000000C00000000014130355800 00000000000000000000 00000000000000000000       00000000000000000000000 00000000000000000000000 00000000000000000000000 00000000000000000000000    00000000000000000000000 00000000000000000000000 00000000000000000000000 00000000000000000000000 00000000000000000000
01935            2              935            2              100000136079                       8                                  BVMFINDM22                             BRBMEFIBV3500020000100000IND                           M22 00000000000000000000            000000000000000000000000000000000000 0000000000 2022-06-152022-04-051000000000003600 000000000000000 000000000000000000000000000000000000000000000 000000000000000000000000000000000000000000000 00000000000000010000000000036000000000000000001000000000003600000000000000000000000000000000000000000000000 0000000000000000000000004451976000000000000000000000000D00000000000136440000D00000000000136440000 00000000000000000000 00000000000000000000C00000000044519040000 00000000000000000000 00000000000000000000       00000000000000000000000 00000000000000000000000 00000000000000000000000 00000000000000000000000    00000000000000000000000 00000000000000000000000 00000000000000000000000 00000000000000000000000 00000000000000000000
01935            2              935            2              100000092974                       8                                  BVMFDOLN24                             BRBMEFDOL5B20020005000000DOL                           N24 00000000000000000000            000000000000000000000000000000000000 0000000000 2024-07-012022-04-051000000000005610 000000000000000 000000000000000000000000000000000000000000000 000000000000000000000000000000000000000000000 00000000000000010000000000056100000000000000001000000000005610000000000000000000000000000000000000000000000 0000000000000000000000015359694735000000000000000000000D00000000001909587900D00000000001909587900 00000000000000000000 00000000000000000000C00000000153540847350 00000000000000000000 00000000000000000000       00000000000000000000000 00000000000000000000000 00000000000000000000000 00000000000000000000000    00000000000000000000000 00000000000000000000000 00000000000000000000000 00000000000000000000000 00000000000000000000
01935            2              935            2              100000089303                       8                                  BVMFWDON22                             BRBMEFWDO2M30020001000000WDO                           N22 00000000000000000000            000000000000000000000000000000000000 0000000000 2022-07-012022-04-051000000000005610 000000000000000 000000000000000000000000000000000000000000000 000000000000000000000000000000000000000000000 00000000000000010000000000056100000000000000001000000000005610000000000000000000000000000000000000000000000 0000000000000000000000002655476109000000000000000000000D00000000000307596300D00000000000307596300 00000000000000000000 00000000000000000000C00000000026543541090 00000000000000000000 00000000000000000000       00000000000000000000000 00000000000000000000000 00000000000000000000000 00000000000000000000000    00000000000000000000000 00000000000000000000000 00000000000000000000000 00000000000000000000000 00000000000000000000
01935            2              935            2              100000089302                       8                                  BVMFDOLN22                             BRBMEFDOL5610020005000000DOL                           N22 00000000000000000000            000000000000000000000000000000000000 0000000000 2022-07-012022-04-051000000000005610 000000000000000 000000000000000000000000000000000000000000000 000000000000000000000000000000000000000000000 00000000000000010000000000056100000000000000001000000000005610000000000000000000000000000000000000000000000 0000000000000000000000013277380545000000000000000000000D00000000001537981500D00000000001537981500 00000000000000000000 00000000000000000000C00000000132717705450 00000000000000000000 00000000000000000000       00000000000000000000000 00000000000000000000000 00000000000000000000000 00000000000000000000000    00000000000000000000000 00000000000000000000000 00000000000000000000000 00000000000000000000000 00000000000000000000
01935            293326         935            293326         200000757686                       8                                  BVMFAZEVL510                           BRAZEV3L00030700010000000AZEV                              00000000000000000124BRAZEVACNOR0000000012400000000000000102660000000C000000000112022-12-212022-04-052000000000000049 000000000000000 000000000000000000000000000000000000000000000 000000000000000000000000000000000000000000000 00000000000000020000000000000490000000000000002000000000000049000000000000000000000000000049000000000000000 0000000000000000000000000000000000000000000000000000049 00000000000000000000 00000000000000000000 00000000000000000000 00000000000000000000 00000000000000000000 00000000000000000000 00000000000000000000       00000000000000000000000 00000000000000000000000 00000000000000000000000 00000000000000000000000    00000000000000000000000 00000000000000000000000 00000000000000000000000 00000000000000000000000 00000000000000000000
02935            2              935            2              935            2              200000741385                       8                                  BVMFBRPETRACNPR6PETR4                              0020101000000000012022-04-042022-04-0621016                              000000000000000000000000000000000000000000000000000000000000000000000000010000000000000000097800000000000000000000978000000000000000000000000000000000000000000000001000000000
02935            2              935            2              935            2              200000741385                       8                                  BVMFBRPETRACNPR6PETR4                              0020101000000000012022-04-052022-04-0721016                              000000000000000000000000000000000000000000000000000000000000000000000000010000000000000000097800000000000000000000978000000000000000000000000000000000000000000000001000000000
02935            77             935            77             935            77             200000741385                       8                                  BVMFBRPETRACNPR6PETR4                              0020101000000000012022-04-052022-04-0721016                              000000000000100000000000000000978000000000000000000009780000000000000000000000000000000000000000000000000000000000000000000000000000000000000000000000000000000000000000000000
02935            77             935            77             935            77             200000741385                       8                                  BVMFBRPETRACNPR6PETR4                              0020101000000000012022-04-042022-04-0621016                              000000000000100000000000000000978000000000000000000009780000000000000000000000000000000000000000000000000000000000000000000000000000000000000000000000000000000000000000000000
04935            77             935            77             935            77             BRGGBRACNOR100181TCBIPID-2-1648219953344-1-CA_1_1   2022-03-22          121016                              0000000001013000000000000000000000000000000000000000000000000000000000000000000000000000019679560000000000000000000000000000000000000000000000000000000000000000000000000000019427008000000000000000000000000000
04935            77             935            77             935            77             BRNEMOACNPB700115TCBIPID-2-1648218899538-1-CA_1_1   2022-03-22          121016                              0000000000648000000000000000000000000000000000000000000000000000000000000000000000000000015684370000000000000000000000000000000000000000000000000000000000000000000000000000024204266000000000000000000000000000
04935            77             935            77             935            77             BRPETRACNPR600201SNF-16488217044050000003g          2022-03-29          121016                              0000000000490000000000000000000000000000000000000000000000000000000000000000000000000000013857400000000000000000000000000000000000000000000000000000000000000000000000000000028280392000000000000000000000000000
04935            77             935            77             935            77             BRPETRACNPR600201SNF-16470073087570000003m          2022-03-08          121016                              0000000000015000000000000000000000000000000000000000000000000000000000000000000000000000000423000000000000000000000000000000000000000000000000000000000000000000000000000000028200000000000000000000000000000000
04935            77             935            77             935            77             BRPETRACNPR600201SNF-16491673202960000004s          2022-03-31          121016                              0000000000200000000000000000000000000000000000000000000000000000000000000000000000000000005640000000000000000000000000000000000000000000000000000000000000000000000000000000028200000000000000000000000000000000
04935            77             935            77             935            77             BRPETRACNPR600201SNF-164873533507600000048          2022-03-282022-04-05121016                              0000000000500000000000000000000000000000000000000000000000000000000500000000000000000000014100000000000000000000000000000000000000000000000000000000014100000000000000000000028200000000000000000000000323000000
04935            77             935            77             935            77             BRPETRACNPR600201SNF-16470073087570000003n          2022-03-08          121016                              0000000000003000000000000000000000000000000000000000000000000000000000000000000000000000000084600000000000000000000000000000000000000000000000000000000000000000000000000000028200000000000000000000000000000000
04935            77             935            77             935            77             BRPETRACNPR600201SNF-16470073087570000003k          2022-03-08          121016                              0000000000085000000000000000000000000000000000000000000000000000000000000000000000000000002397000000000000000000000000000000000000000000000000000000000000000000000000000000028200000000000000000000000000000000
04935            77             935            77             935            77             BRPETRACNPR600201SNF-16470073087570000003l          2022-03-08          121016                              0000000000070000000000000000000000000000000000000000000000000000000000000000000000000000001974000000000000000000000000000000000000000000000000000000000000000000000000000000028200000000000000000000000000000000
04935            77             935            77             935            77             BRPETRACNPR600201SNF-16491673202960000004t          2022-03-31          121016                              0000000000300000000000000000000000000000000000000000000000000000000000000000000000000000008460000000000000000000000000000000000000000000000000000000000000000000000000000000028200000000000000000000000000000000
04935            77             935            77             935            77             BRVALEACNOR000203SNF-164882170440500000053          2022-03-29          121016                              0000000000010000000000000000000000000000000000000000000000000000000000000000000000000000000952300000000000000000000000000000000000000000000000000000000000000000000000000000095230000000000000000000000000000000
04935            77             935            77             935            77             BRVALEACNOR000203SNF-16491673202960000007l          2022-03-31          121016                              0000000000200000000000000000000000000000000000000000000000000000000000000000000000000000019046000000000000000000000000000000000000000000000000000000000000000000000000000000095230000000000000000000000000000000
04935            77             935            77             935            77             BRMMAQACNPR800150TCBIPID-2-1648218899538-1-CA_1_2   2022-03-22          121016                              0000000000202000000000000000000000000000000000000000000000000000000000000000000000000000004762110000000000000000000000000000000000000000000000000000000000000000000000000000023574777000000000000000000000000000
04935            77             935            77             935            77             BRLUXMACNPR400049TCBIPID-2-1648218899538-1-CA_1_3   2022-03-22          121016                              0000000000162000000000000000000000000000000000000000000000000000000000000000000000000000003828570000000000000000000000000000000000000000000000000000000000000000000000000000023633144000000000000000000000000000
04935            2              935            2              935            2              BRGGBRACNOR100181TCBIPID-2-1648219953344-1-CA_1_1   2022-03-22          221016                              0000000001013000000000000000000000000000000000000000000000000000000000000000000000000000019679560000000000000000000000000000000000000000000000000000000000000000000000000000019427008000000000000000000000000000
04935            2              935            2              935            2              BRNEMOACNPB700115TCBIPID-2-1648218899538-1-CA_1_1   2022-03-22          221016                              0000000000648000000000000000000000000000000000000000000000000000000000000000000000000000015684370000000000000000000000000000000000000000000000000000000000000000000000000000024204266000000000000000000000000000
04935            2              935            2              935            2              BRB3SAACNOR600121SNF-16470073087570000006y          2022-03-09          221016                              0000000000055000000000000000000000000000000000000000000000000000000000000000000000000000000550000000000000000000000000000000000000000000000000000000000000000000000000000000010000000000000000000000000000000000
04935            2              935            2              935            2              BRVALEACNOR000203SNF-164882170440500000051          2022-03-31          121016                              0000000000040000000000000000000000000000000000000000000000000000000000000000000000000000003125200000000000000000000000000000000000000000000000000000000000000000000000000000078130000000000000000000000000000000
04935            2              935            2              935            2              BRVALEACNOR000203SNF-16491673202960000007n          2022-04-01          121016                              0000000000040000000000000000000000000000000000000000000000000000000000000000000000000000003125200000000000000000000000000000000000000000000000000000000000000000000000000000078130000000000000000000000000000000
04935            2              935            2              935            2              BRVALEACNOR000203SNF-164882170440500000050          2022-03-30          121016                              0000000000040000000000000000000000000000000000000000000000000000000000000000000000000000003125200000000000000000000000000000000000000000000000000000000000000000000000000000078130000000000000000000000000000000
04935            2              935            2              935            2              BRMMAQACNPR800150TCBIPID-2-1648218899538-1-CA_1_2   2022-03-22          221016                              0000000000202000000000000000000000000000000000000000000000000000000000000000000000000000004762110000000000000000000000000000000000000000000000000000000000000000000000000000023574777000000000000000000000000000
04935            2              935            2              935            2              BRLUXMACNPR400049TCBIPID-2-1648218899538-1-CA_1_3   2022-03-22          221016                              0000000000162000000000000000000000000000000000000000000000000000000000000000000000000000003828570000000000000000000000000000000000000000000000000000000000000000000000000000023633144000000000000000000000000000
06935            2              935            2              2022-04-05200000453628                       8                                  BVMFOESL        2022032500201214090001-1                                              4200000690799                       8                                  BVMFBRVALEACNOR00000000203093VALE3                              2022-03-252022-04-272022-03-2821016                              00000000000000000781300000000000000100000000000004000000000000000000000000000000000000000000000000000000000000000000000040000000000000000000000000000000000000000400000000000000031252001100000000000000000000100000935       2              113                                                                935            2              000000000000000000000000003                                   21                0000000000000000                            000000000000000000000000000
06935            2              935            2              2022-04-05200000453628                       8                                  BVMFOESL        2022030900201193380001-2           2022020700201193380001-1           4200000690799                       8                                  BVMFBRVALEACNOR00000000203093VALE3                              2022-03-092022-04-112022-03-1021016                              00000000000000000781300000000000000100000000000004000000000000000000000000000000000000000000000000000000000000000000000040000000000000000000000000000000000000000400000000000000031252001100000000000000000000100000935       2              119                                                                935            2              000000000000000000000000003                                   21                0000000000000000                            000000000000000000000000000
06935            2              935            2              2022-04-05200000453628                       8                                  BVMFOESL        2022032100201211040001-1                                              4200000690799                       8                                  BVMFBRVALEACNOR00000000203093VALE3                              2022-03-212022-04-252022-03-2221016                              00000000000000000781300000000000000100000000000004000000000000000000000000000000000000000000000000000000000000000000000040000000000000000000000000000000000000000400000000000000031252001100000000000000000000100000935       2              113                                                                935            2              000000000000000000000000003                                   21                0000000000000000                            000000000000000000000000000
06935            2              935            2              2022-04-05200000453628                       8                                  BVMFOESL        2022032800201214380001-1                                              4200000690799                       8                                  BVMFBRVALEACNOR00000000203093VALE3                              2022-03-282022-05-022022-03-2921016                              00000000000000000781300000000000000100000000000004000000000000000000000000000000000000000000000000000000000000000000000040000000000000000000000000000000000000000400000000000000031252001100000000000000000000100000935       2              113                                                                935            2              000000000000000000000000003                                   21                0000000000000000                            000000000000000000000000000
06935            2              935            2              2022-04-05200000453628                       8                                  BVMFOESL        2022032300201200400001-2           2022022300201200400001-1           4200000690799                       8                                  BVMFBRVALEACNOR00000000203093VALE3                              2022-03-232022-04-252022-03-2421016                              00000000000000000781300000000000000100000000000004000000000000000000000000000000000000000000000000000000000000000000000040000000000000000000000000000000000000000400000000000000031252001100000000000000000000100000935       2              119                                                                935            2              000000000000000000000000003                                   21                0000000000000000                            000000000000000000000000000
06935            2              935            2              2022-04-05200000453628                       8                                  BVMFOESL        2022032300201212900001-1                                              4200000690799                       8                                  BVMFBRVALEACNOR00000000203093VALE3                              2022-03-232022-04-252022-03-2421016                              00000000000000000781300000000000000100000000000004000000000000000000000000000000000000000000000000000000000000000000000040000000000000000000000000000000000000000400000000000000031252001100000000000000000000100000935       2              113                                                                935            2              000000000000000000000000003                                   21                0000000000000000                            000000000000000000000000000
06935            2              935            2              2022-04-05200000453628                       8                                  BVMFOESL        2022031100201184560001-2           2022021100201184560001-2           4200000690799                       8                                  BVMFBRVALEACNOR00000000203093VALE3                              2022-03-112022-04-132022-03-1421016                              00000000000000000781300000000000000100000000000004000000000000000000000000000000000000000000000000000000000000000000000040000000000000000000000000000000000000000400000000000000031252001100000000000000000000100000935       2              119                                                                935            2              000000000000000000000000003                                   21                0000000000000000                            000000000000000000000000000
06935            2              935            2              2022-04-05200000453628                       8                                  BVMFOESL        2022031600201197600001-2           2022021600201197600001-1           4200000690799                       8                                  BVMFBRVALEACNOR00000000203093VALE3                              2022-03-162022-04-182022-03-1721016                              00000000000000000781300000000000000100000000000001000000000000000000000000000000000000000000000000000000000000000000000010000000000000000000000000000000000000000100000000000000007813001100000000000000000000100000935       2              119                                                                935            2              000000000000000000000000003                                   21                0000000000000000                            000000000000000000000000000
06935            2              935            2              2022-04-05200000453628                       8                                  BVMFOESL        2022030800201204440001-1                                              4200000690799                       8                                  BVMFBRVALEACNOR00000000203093VALE3                              2022-03-082022-04-112022-03-0921016                              00000000000000000781300000000000000100000000000004000000000000000000000000000000000000000000000000000000000000000000000040000000000000000000000000000000000000000400000000000000031252001100000000000000000000100000935       2              113                                                                935            2              000000000000000000000000003                                   21                0000000000000000                            000000000000000000000000000
06935            2              935            2              2022-04-05200000453628                       8                                  BVMFOESL        2022031600201208790001-1                                              4200000690799                       8                                  BVMFBRVALEACNOR00000000203093VALE3                              2022-03-162022-04-182022-03-1721016                              00000000000000000781300000000000000100000000000004000000000000000000000000000000000000000000000000000000000000000000000040000000000000000000000000000000000000000400000000000000031252001100000000000000000000100000935       2              113                                                                935            2              000000000000000000000000003                                   21                0000000000000000                            000000000000000000000000000
06935            2              935            2              2022-04-05200000453628                       8                                  BVMFOESL        2022031600201198110001-3           2022031400201198110001-3           4200000757811                       8                                  BVMFBRBRIVACNOR60000000210093BRIV3                              2022-03-162022-04-182022-03-1721016                              00000000000000000025000000000000000100000000000042300000000000000000000000000000000000000000000000000000000000000000000423000000000000000000000000000000000000004230000000000000010575001100000000000000000000023300935       2              229                                                                935            2              000000000000000000000000001                                   21                0000000000000000                            000000000000000000000000000
06935            2              935            2              2022-04-05200000453628                       8                                  BVMFOESL        2022031800201199200001-2           2022021800201199200001-1           4200000690799                       8                                  BVMFBRVALEACNOR00000000203093VALE3                              2022-03-182022-04-202022-03-2121016                              00000000000000000781300000000000000100000000000004000000000000000000000000000000000000000000000000000000000000000000000040000000000000000000000000000000000000000400000000000000031252001100000000000000000000100000935       2              119                                                                935            2              000000000000000000000000003                                   21                0000000000000000                            000000000000000000000000000
06935            2              935            2              2022-04-05200000453628                       8                                  BVMFOESL        2022030900201182850001-2           2022020800201182850001-2           4200000690799                       8                                  BVMFBRVALEACNOR00000000203093VALE3                              2022-03-092022-04-112022-03-1021016                              00000000000000000781300000000000000100000000000004000000000000000000000000000000000000000000000000000000000000000000000040000000000000000000000000000000000000000400000000000000031252001100000000000000000000100000935       2              119                                                                935            2              000000000000000000000000003                                   21                0000000000000000                            000000000000000000000000000
06935            2              935            2              2022-04-05200000453628                       8                                  BVMFOESL        2022040500201220860001-1                                              4200000690799                       8                                  BVMFBRVALEACNOR00000000203093VALE3                              2022-04-052022-05-092022-04-0621016                              00000000000000000781300000000000000100000000000006000000000000000000000000000000000000000000000000000000000000000000000060000000000000000000000000000000000000000600000000000000046878001100000000000000000000100000935       2              113                                                                935            2              000000000000000000000000003                                   21                0000000000000000                            000000000000000000000000000
06935            2              935            2              2022-04-05200000453628                       8                                  BVMFOESL        2022032300201200070001-2           2022022200201200070001-1           4200000690799                       8                                  BVMFBRVALEACNOR00000000203093VALE3                              2022-03-232022-04-252022-03-2421016                              00000000000000000781300000000000000100000000000004000000000000000000000000000000000000000000000000000000000000000000000040000000000000000000000000000000000000000400000000000000031252001100000000000000000000100000935       2              119                                                                935            2              000000000000000000000000003                                   21                0000000000000000                            000000000000000000000000000
06935            2              935            2              2022-04-05200000453628                       8                                  BVMFOESL        2022040100201203580001-2           2022030400201203580001-1           4200000690799                       8                                  BVMFBRVALEACNOR00000000203093VALE3                              2022-04-012022-05-042022-04-0421016                              00000000000000000781300000000000000100000000000004000000000000000000000000000000000000000000000000000000000000000000000040000000000000000000000000000000000000000400000000000000031252001100000000000000000000100000935       2              119                                                                935            2              000000000000000000000000003                                   21                0000000000000000                            000000000000000000000000000
06935            2              935            2              2022-04-05200000453628                       8                                  BVMFOESL        2022031600201198140001-2           2022031400201198140001-2           4200000757618                       8                                  BVMFBRB3SAACNOR60000000121093B3SA3                              2022-03-162022-04-182022-03-1721016                              00000000000000000100000000000000000100000000000002000000000000000000000000000000000000000000000000000000000000000000000020000000000000000000000000000000000000000200000000000000002000001100000000000000000000023300935       2              229                                                                935            2              000000000000000000000000001                                   21                0000000000000000                            000000000000000000000000000
06935            2              935            2              2022-04-05200000453628                       8                                  BVMFOESL        2022031000201194890001-2           2022021000201194890001-1           4200000690799                       8                                  BVMFBRVALEACNOR00000000203093VALE3                              2022-03-102022-04-122022-03-1121016                              00000000000000000781300000000000000100000000000004000000000000000000000000000000000000000000000000000000000000000000000040000000000000000000000000000000000000000400000000000000031252001100000000000000000000100000935       2              119                                                                935            2              000000000000000000000000003                                   21                0000000000000000                            000000000000000000000000000
06935            2              935            2              2022-04-05200000453628                       8                                  BVMFOESL        2022032100201211500001-1                                              3200000757634                       8                                  BVMFBRVBBRACNOR10000000103093VBBR3                              2022-03-212022-04-252022-03-2221016                              00000000000000000147500000000000000100000000000004500000000000000000000000000000000000000000000000000000000000000000000000000000000000000000000000000000000000000450000000000000006637501100000000000000000000040000935       2              113                                                                935            2              000000000000000000000000003                                   21                0000000000000000                            000000000000000000000000000
06935            2              935            2              2022-04-05200000453628                       8                                  BVMFOESL        2022030900201205300001-1                                              3200000690799                       8                                  BVMFBRVALEACNOR00000000203093VALE3                              2022-03-092022-04-112022-03-1021016                              00000000000000000781300000000000000100000000000010000000000000000000000000000000000000000000000000000000000000000000000000000000000000000000000000000000000000001000000000000000078130001100000000000000000000199000935       2              113                                                                935            2              000000000000000000000000003                                   21                0000000000000000                            000000000000000000000000000
06935            2              935            2              2022-04-05200000453628                       8                                  BVMFOESL        2022031500201207620001-1                                              4200000690799                       8                                  BVMFBRVALEACNOR00000000203093VALE3                              2022-03-152022-04-182022-03-1621016                              00000000000000000781300000000000000100000000000004000000000000000000000000000000000000000000000000000000000000000000000040000000000000000000000000000000000000000400000000000000031252001100000000000000000000100000935       2              113                                                                935            2              000000000000000000000000003                                   21                0000000000000000                            000000000000000000000000000
06935            2              935            2              2022-04-05200000453628                       8                                  BVMFOESL        2022021600201198140001-1                                              4200000757774                       8                                  BVMFBRBRIVACNOR60000000209093BRIV3                              2022-02-162022-03-212022-02-1721016                              00000000000000000085050000000000000100000000000004500000000000000000000000000000000000000000000000000000000000000000000000000000000000000000000000000000000000000000000000000000000000001100000000000000000000023300935       2              221                                                                935            2              000000000000000000000000001                                   21                0000000000000000                            000000000000000000000000000
06935            2              935            2              2022-04-05200000453628                       8                                  BVMFOESL        2022033100201217730001-1                                              4200000690799                       8                                  BVMFBRVALEACNOR00000000203093VALE3                              2022-03-312022-05-032022-04-0121016                              00000000000000000781300000000000000100000000000004000000000000000000000000000000000000000000000000000000000000000000000040000000000000000000000000000000000000000400000000000000031252001100000000000000000000100000935       2              113                                                                935            2              000000000000000000000000003                                   21                0000000000000000                            000000000000000000000000000
06935            2              935            2              2022-04-05200000453628                       8                                  BVMFOESL        2022032900201215640001-1                                              4200000690799                       8                                  BVMFBRVALEACNOR00000000203093VALE3                              2022-03-292022-05-022022-03-3021016                              00000000000000000781300000000000000100000000000004000000000000000000000000000000000000000000000000000000000000000000000040000000000000000000000000000000000000000400000000000000031252001100000000000000000000100000935       2              113                                                                935            2              000000000000000000000000003                                   21                0000000000000000                            000000000000000000000000000
06935            2              935            2              2022-04-05200000453628                       8                                  BVMFOESL        2022031600201185110001-2           2022021600201185110001-2           4200000690799                       8                                  BVMFBRVALEACNOR00000000203093VALE3                              2022-03-162022-04-182022-03-1721016                              00000000000000000781300000000000000100000000000004000000000000000000000000000000000000000000000000000000000000000000000040000000000000000000000000000000000000000400000000000000031252001100000000000000000000100000935       2              119                                                                935            2              000000000000000000000000003                                   21                0000000000000000                            000000000000000000000000000
06935            2              935            2              2022-04-05200000453628                       8                                  BVMFOESL        2022033100201180560001-2           2022030300201180560001-2           4200000690799                       8                                  BVMFBRVALEACNOR00000000203093VALE3                              2022-03-312022-05-032022-04-0121016                              00000000000000000781300000000000000100000000000002000000000000000000000000000000000000000000000000000000000000000000000020000000000000000000000000000000000000000200000000000000015626001100000000000000000000100000935       2              119                                                                935            2              000000000000000000000000003                                   21                0000000000000000                            000000000000000000000000000
06935            2              935            2              2022-04-05200000453628                       8                                  BVMFOESL        2022032300201187120001-2           2022022300201187120001-2           4200000690799                       8                                  BVMFBRVALEACNOR00000000203093VALE3                              2022-03-232022-04-252022-03-2421016                              00000000000000000781300000000000000100000000000004000000000000000000000000000000000000000000000000000000000000000000000040000000000000000000000000000000000000000400000000000000031252001100000000000000000000100000935       2              119                                                                935            2              000000000000000000000000003                                   21                0000000000000000                            000000000000000000000000000
06935            2              935            2              2022-04-05200000453628                       8                                  BVMFOESL        2022032200201211850001-1                                              4200000690799                       8                                  BVMFBRVALEACNOR00000000203093VALE3                              2022-03-222022-04-252022-03-2321016                              00000000000000000781300000000000000100000000000001000000000000000000000000000000000000000000000000000000000000000000000010000000000000000000000000000000000000000100000000000000007813001100000000000000000000100000935       2              113                                                                935            2              000000000000000000000000003                                   21                0000000000000000                            000000000000000000000000000
06935            2              935            2              2022-04-05200000453628                       8                                  BVMFOESL        2022032300201189030001-2           2022022300201189030001-2           4200000690799                       8                                  BVMFBRVALEACNOR00000000203093VALE3                              2022-03-232022-04-252022-03-2421016                              00000000000000000781300000000000000100000000000001000000000000000000000000000000000000000000000000000000000000000000000010000000000000000000000000000000000000000100000000000000007813001100000000000000000000100000935       2              119                                                                935            2              000000000000000000000000003                                   21                0000000000000000                            000000000000000000000000000
06935            2              935            2              2022-04-05200000453628                       8                                  BVMFOESL        2022031600201198080001-2           2022021600201198080001-1           4200000757836                       8                                  BVMFBRAZEVACNOR00000000124093AZEV3                              2022-03-162022-04-182022-03-1721016                              00000000000000005750000000000000000100000000000138000000000000000000000000000000000000000000000000000000000000000000000024000000000000000000000000000000000000000240000000000000138000001100000000000000000000012320935       2              229                                                                935            2              000000000000000000000000001                                   21                0000000000000000                            000000000000000000000000000
06935            2              935            2              2022-04-05200000453628                       8                                  BVMFOESL        2022031100201184740001-2           2022021100201184740001-2           4200000741385                       8                                  BVMFBRPETRACNPR60000000201093PETR4                              2022-03-112022-04-132022-03-1421016                              00000000000000000280400000000000000100000000001000000000000000000000000000000000000000000000000000000000000000000000010000000000000000000000000000000000000000100000000000000002804000001100000000000000000000650000935       2              119                                                                935            2              000000000000000000000000002                                   21                0000000000000000                            000000000000000000000000000
06935            2              935            2              2022-04-05200000453628                       8                                  BVMFOESL        2022032400201201150001-2           2022022400201201150001-1           4200000690799                       8                                  BVMFBRVALEACNOR00000000203093VALE3                              2022-03-242022-04-262022-03-2521016                              00000000000000000781300000000000000100000000000004000000000000000000000000000000000000000000000000000000000000000000000040000000000000000000000000000000000000000400000000000000031252001100000000000000000000100000935       2              119                                                                935            2              000000000000000000000000003                                   21                0000000000000000                            000000000000000000000000000
06935            2              935            2              2022-04-05200000453628                       8                                  BVMFOESL        2022030900201194500001-2           2022020800201194500001-1           4200000690799                       8                                  BVMFBRVALEACNOR00000000203093VALE3                              2022-03-092022-04-112022-03-1021016                              00000000000000000781300000000000000100000000000001000000000000000000000000000000000000000000000000000000000000000000000010000000000000000000000000000000000000000100000000000000007813001100000000000000000000100000935       2              119                                                                935            2              000000000000000000000000003                                   21                0000000000000000                            000000000000000000000000000
06935            2              935            2              2022-04-05200000453628                       8                                  BVMFOESL        2022032300201187570001-2           2022022300201187570001-2           4200000690799                       8                                  BVMFBRVALEACNOR00000000203093VALE3                              2022-03-232022-04-252022-03-2421016                              00000000000000000781300000000000000100000000000004000000000000000000000000000000000000000000000000000000000000000000000040000000000000000000000000000000000000000400000000000000031252001100000000000000000000100000935       2              119                                                                935            2              000000000000000000000000003                                   21                0000000000000000                            000000000000000000000000000
06935            2              935            2              2022-04-05200000453628                       8                                  BVMFOESL        2022040400201220670001-1                                              4200000690799                       8                                  BVMFBRVALEACNOR00000000203093VALE3                              2022-04-042022-05-042022-04-0521016                              00000000000000000781300000000000000100000000000000300000000000000000000000000000000000000000000000000000000000000000000003000000000000000000000000000000000000000030000000000000002343901100000000000000000000200000935       2              113                                                                935            2              000000000000000000000000003                                   21                0000000000000000                            000000000000000000000000000
06935            2              935            2              2022-04-05200000453628                       8                                  BVMFOESL        2022030700201204040001-1                                              4200000690799                       8                                  BVMFBRVALEACNOR00000000203093VALE3                              2022-03-072022-04-112022-03-0821016                              00000000000000000781300000000000000100000000000004000000000000000000000000000000000000000000000000000000000000000000000040000000000000000000000000000000000000000400000000000000031252001100000000000000000000100000935       2              113                                                                935            2              000000000000000000000000003                                   21                0000000000000000                            000000000000000000000000000
06935            2              935            2              2022-04-05200000453628                       8                                  BVMFOESL        2022032500201201870001-2           2022022500201201870001-1           4200000690799                       8                                  BVMFBRVALEACNOR00000000203093VALE3                              2022-03-252022-04-272022-03-2821016                              00000000000000000781300000000000000100000000000002000000000000000000000000000000000000000000000000000000000000000000000020000000000000000000000000000000000000000200000000000000015626001100000000000000000000100000935       2              119                                                                935            2              000000000000000000000000003                                   21                0000000000000000                            000000000000000000000000000
06935            2              935            2              2022-04-05200000453628                       8                                  BVMFOESL        2022030900201205290001-1                                              3200000757618                       8                                  BVMFBRB3SAACNOR60000000121093B3SA3                              2022-03-092022-04-112022-03-1021016                              00000000000000000100000000000000000100000000000005500000000000000000000000000000000000000000000000000000000000000000000000000000000000000000000000000000000000000550000000000000005500001100000000000000000000050000935       2              113                                                                935            2              000000000000000000000000003                                   22                0000000000000000                            000000000000000000000000000
06935            2              935            2              2022-04-05200000453628                       8                                  BVMFOESL        2022040100201193210001-2           2022030400201193210001-2           4200000741385                       8                                  BVMFBRPETRACNPR60000000201093PETR4                              2022-04-012022-05-042022-04-0421016                              00000000000000000280400000000000000100000000000001000000000000000000000000000000000000000000000000000000000000000000000010000000000000000000000000000000000000000100000000000000002804001100000000000000000000100000935       2              119                                                                935            2              000000000000000000000000003                                   21                0000000000000000                            000000000000000000000000000
06935            2              935            2              2022-04-05200000453628                       8                                  BVMFOESL        2022031600201198110001-2           2022031400201198110001-2           4200000757618                       8                                  BVMFBRB3SAACNOR60000000121093B3SA3                              2022-03-162022-04-182022-03-1721016                              00000000000000000100000000000000000100000000000021100000000000000000000000000000000000000000000000000000000000000000000211000000000000000000000000000000000000002110000000000000021100001100000000000000000000023300935       2              229                                                                935            2              000000000000000000000000001                                   21                0000000000000000                            000000000000000000000000000
06935            2              935            2              2022-04-05200000453628                       8                                  BVMFOESL        2022031400201207150001-1                                              4200000690799                       8                                  BVMFBRVALEACNOR00000000203093VALE3                              2022-03-142022-04-182022-03-1521016                              00000000000000000781300000000000000100000000000004000000000000000000000000000000000000000000000000000000000000000000000040000000000000000000000000000000000000000400000000000000031252001100000000000000000000100000935       2              113                                                                935            2              000000000000000000000000003                                   21                0000000000000000                            000000000000000000000000000
06935            2              935            2              2022-04-05200000453628                       8                                  BVMFOESL        2022033000201189490001-2           2022030200201189490001-2           4200000690799                       8                                  BVMFBRVALEACNOR00000000203093VALE3                              2022-03-302022-05-022022-03-3121016                              00000000000000000781300000000000000100000000000004000000000000000000000000000000000000000000000000000000000000000000000040000000000000000000000000000000000000000400000000000000031252001100000000000000000000100000935       2              119                                                                935            2              000000000000000000000000003                                   21                0000000000000000                            000000000000000000000000000
06935            2              935            2              2022-04-05200000453628                       8                                  BVMFOESL        2022031600201185440001-2           2022021600201185440001-2           4200000690799                       8                                  BVMFBRVALEACNOR00000000203093VALE3                              2022-03-162022-04-182022-03-1721016                              00000000000000000781300000000000000100000000000004000000000000000000000000000000000000000000000000000000000000000000000040000000000000000000000000000000000000000400000000000000031252001100000000000000000000100000935       2              119                                                                935            2              000000000000000000000000003                                   21                0000000000000000                            000000000000000000000000000
06935            2              935            2              2022-04-05200000453628                       8                                  BVMFOESL        2022031700201185650001-2           2022021700201185650001-2           4200000690799                       8                                  BVMFBRVALEACNOR00000000203093VALE3                              2022-03-172022-04-192022-03-1821016                              00000000000000000781300000000000000100000000000004000000000000000000000000000000000000000000000000000000000000000000000040000000000000000000000000000000000000000400000000000000031252001100000000000000000000100000935       2              119                                                                935            2              000000000000000000000000003                                   21                0000000000000000                            000000000000000000000000000
06935            2              935            2              2022-04-05200000453628                       8                                  BVMFOESL        2022031100201206250001-1                                              4200000690799                       8                                  BVMFBRVALEACNOR00000000203093VALE3                              2022-03-112022-04-132022-03-1421016                              00000000000000000781300000000000000100000000000004000000000000000000000000000000000000000000000000000000000000000000000040000000000000000000000000000000000000000400000000000000031252001100000000000000000000100000935       2              113                                                                935            2              000000000000000000000000003                                   21                0000000000000000                            000000000000000000000000000
06935            2              935            2              2022-04-05200000453628                       8                                  BVMFOESL        2022031800201186180001-2           2022021800201186180001-2           4200000690799                       8                                  BVMFBRVALEACNOR00000000203093VALE3                              2022-03-182022-04-202022-03-2121016                              00000000000000000781300000000000000100000000000004000000000000000000000000000000000000000000000000000000000000000000000040000000000000000000000000000000000000000400000000000000031252001100000000000000000000100000935       2              119                                                                935            2              000000000000000000000000003                                   21                0000000000000000                            000000000000000000000000000
06935            2              935            2              2022-04-05200000453628                       8                                  BVMFOESL        2022033000201216570001-1                                              4200000690799                       8                                  BVMFBRVALEACNOR00000000203093VALE3                              2022-03-302022-05-022022-03-3121016                              00000000000000000781300000000000000100000000000004000000000000000000000000000000000000000000000000000000000000000000000040000000000000000000000000000000000000000400000000000000031252001100000000000000000000100000935       2              113                                                                935            2              000000000000000000000000003                                   21                0000000000000000                            000000000000000000000000000
06935            2              935            2              2022-04-05200000453628                       8                                  BVMFOESL        2022021600201198110001-1                                              4200000757774                       8                                  BVMFBRBRIVACNOR60000000209093BRIV3                              2022-02-162022-03-212022-02-1721016                              00000000000000000083285100000000000100000000000046600000000000000000000000000000000000000000000000000000000000000000000000000000000000000000000000000000000000000000000000000000000000001100000000000000000000023300935       2              221                                                                935            2              000000000000000000000000001                                   21                0000000000000000                            000000000000000000000000000
