00IMBARQ0010010000489BVMF    0000000000004890000000012016101420161013
01489            1001           489            1              100000000005                       8                                  BVMFABEVL92                            BRABEV3L02L00700001000000ABEV                              00000000000000000113BRABEVACNOR1000000011300000000000000000017700000C000000000122016-12-192016-10-131000000000000600 000000000000000 000000000000000000000000000000000000000000000 000000000000000000000000000000000000000000000 00000000000000010000000000006000000000000000001000000000000600000000000000000000000000000000000000000000000 0000000000000000000000000000106320000000000000000000000 00000000000000000000 00000000000000000000 00000000000000000000 00000000000000000000 00000000000000000000 00000000000000000000 00000000000000000000       00000000000000000000000 00000000000000000000000 00000000000000000000000 00000000000000000000000    00000000000000000000000 00000000000000000000000 00000000000000000000000 00000000000000000000000 00000000000000000000
01489            1001           489            1              100000000109                       8                                  BVMFABEVJ79                            BRABEV3J01Y90700001000000ABEV                              00000000000000000113BRABEVACNOR1000000011300000000000000000023900000C000000000122016-10-172016-10-131000000000001400 000000000000000 000000000000000000000000000000000000000000000 000000000000000000000000000000000000000000000 00000000000000010000000000014000000000000000001000000000001400000000000000000000000000000000000000000000000 0000000000000000000000000000238840000000000000000000000 00000000000000000000 00000000000000000000 00000000000000000000 00000000000000000000 00000000000000000000 00000000000000000000 00000000000000000000       00000000000000000000000 00000000000000000000000 00000000000000000000000 00000000000000000000000    00000000000000000000000 00000000000000000000000 00000000000000000000000 00000000000000000000000 00000000000000000000
01489            1001           489            1              100000057970                       8                                  BVMFTRPLI49                                        0700001000000TRPL                              00000000000000000161BRTRPLACNPR1000000016100000000000000000499500000C000000000112017-09-182016-10-132000000000003000 000000000000000 000000000000000000000000000000000000000000000 000000000000000000000000000000000000000000000 00000000000000020000000000030000000000000000002000000000003000000000000000000000000000003000000000000000000 0000000000000000000000000000000000000000000000000000000 00000000000000000000 00000000000000000000 00000000000000000000 00000000000000000000 00000000000000000000 00000000000000000000 00000000000000000000       00000000000000000000000 00000000000000000000000 00000000000000000000000 00000000000000000000000    00000000000000000000000 00000000000000000000000 00000000000000000000000 00000000000000000000000 00000000000000000000
01489            1002           489            2              100000000358                       8                                  BVMFBVMFJ26                            BRBVMF3J09500700001000000BVMF                              00000000000000000134BRBVMFACNOR3000000013400000000000000000086000000C000000000112016-10-172016-10-131000000000017100 000000000000000 000000000000000000000000001200000000000000000 000000000000000000000000000000000000000000000 00000000000000010000000000183000000000000000001000000000018300000000000000000000000000000000000000000000000 0000000000000000000000000001628700000000000000000000000 00000000000000000000 00000000000000000000 00000000000000000000 00000000000000000000 00000000000000000000 00000000000000000000D00000000000000004800       00000000000000000000000 00000000000000000000000 00000000000000000000000 00000000000000000000000    00000000000000000000000 00000000000000000000000 00000000000000000000000 00000000000000000000000 00000000000000000000
01489            1002           489            2              100000000364                       8                                  BVMFPETRB17                            BRPETR4B0HT60700001000000PETR                              00000000000000000185BRPETRACNPR6000000018500000000000000000078000000C000000000112017-02-202016-10-13 000000000000000 000000000000000 000000000000000000000000000400000000000000400 000000000000000000000000000000000000000000000 000000000000000 000000000000000000000000000000 000000000000000000000000000000000000000000000000000000000000 0000000000000000000000000000000000000000000000000000000 00000000000000000000 00000000000000000000 00000000000000000000 00000000000000000000 00000000000000000000 00000000000000000000C00000000000000035200       00000000000000000000000 00000000000000000000000 00000000000000000000000 00000000000000000000000    00000000000000000000000 00000000000000000000000 00000000000000000000000 00000000000000000000000 00000000000000000000
01489            1002           489            2              130152                             8                                  BVMFDDIJ20                             BRBMEFDDI4H00020000005000DDI                           J20 00000000000000000000            000000000000000000000000000000000000 0000000000 2020-04-012016-10-132000000000000500 000000000000000 000000000000000000000000000040000000000000040 000000000000000000000000000000000000000000000 00000000000000020000000000005000000000000000002000000000000500000000000000000000000000000000000000000000000 0000000000000000000000000000000000000000000007226881500C00000000000009836500C00000000000009836500 00000000000000000000 00000000000000000000D00000000001709257600 00000000000000000000 00000000000000000000       00000000000000000000000 00000000000000000000000 00000000000000000000000 00000000000000000000000    00000000000000000000000 00000000000000000000000 00000000000000000000000 00000000000000000000000 00000000000000000000
01489            1002           489            2              152206                             8                                  BVMFDOLN21                             BRBMEFDOL4F60020000500000DOL                           N21 00000000000000000000            000000000000000000000000000000000000 0000000000 2021-07-012016-10-131000000000001850 000000000000000 000000000000000000000000000040000000000000020 000000000000000000000000000000000000000000000 00000000000000010000000000018700000000000000001000000000001870000000000000000000000000000000000000000000000 0000000000000000000000004223629685000000000000000000000C00000000000153182850C00000000000044057750 00000000000000000000C00000000000109125100C00000000010203196850 00000000000000000000 00000000000000000000       00000000000000000000000 00000000000000000000000 00000000000000000000000 00000000000000000000000    00000000000000000000000 00000000000000000000000 00000000000000000000000 00000000000000000000000 00000000000000000000
01489            1002           489            2              199561                             8                                  BVMFINDV16                             BRBMEFIBV2280020000010000IND                           V16 00000000000000000000            000000000000000000000000000000000000 0000000000 2016-10-132016-10-1310000000000004001000000000000400 000000000000000000000000000000000000000000000 000000000000000000000000000000000000000000000 000000000000000 000000000000000000000000000000 00000000000000000000000000000000000000000000000000000000000010000000000004000000000000000000000000000000000000000000D00000000000027040000D00000000000027040000 00000000000000000000 00000000000000000000 00000000000000000000C00000000000273480000 00000000000000000000       00000000000000000000000 00000000000000000000000 00000000000000000000000 00000000000000000000000    00000000000000000000000 00000000000000000000000 00000000000000000000000 00000000000000000000000 00000000000000000000
01489            1005           489            5              199744                             8                                  BVMFWINV16                             BRBMEFWIN1V20020000002000WIN                           V16 00000000000000000000            000000000000000000000000000000000000 0000000000 2016-10-132016-10-1310000000000005001000000000000500 000000000000000000000000000000000000000000000 000000000000000000000000000000000000000000000 000000000000000 000000000000000000000000000000 00000000000000000000000000000000000000000000000000000000000010000000000005000000000000000000000000000000000000000000D00000000000006760000D00000000000006760000 00000000000000000000 00000000000000000000 00000000000000000000C00000000000097270000 00000000000000000000       00000000000000000000000 00000000000000000000000 00000000000000000000000 00000000000000000000000    00000000000000000000000 00000000000000000000000 00000000000000000000000 00000000000000000000000 00000000000000000000
01489            1005           489            5              200000008323                       8                                  BVMFIBOVB10                            BRIBOV9B0FO00700001000000IBOV                              00000000000000000008BRIBOVINDM18000000000800000000000000400000000000C000000000122017-02-152016-10-132000000000001000 000000000000000 000000000000000000000000000000000000000000000 000000000000000000000000000000000000000000000 00000000000000020000000000010000000000000000002000000000001000000000000000000000000000001000000000000000000 0000000000000000000000000000000000000000000001883400000 00000000000000000000 00000000000000000000 00000000000000000000 00000000000000000000 00000000000000000000 00000000000000000000 00000000000000000000       00000000000000000000000 00000000000000000000000 00000000000000000000000 00000000000000000000000    00000000000000000000000 00000000000000000000000 00000000000000000000000 00000000000000000000000 00000000000000000000
01489            1005           489            5              324755                             8                                  BVMFINDJ17                             BRBMEFIBV2A90020000010000IND                           J17 00000000000000000000            000000000000000000000000000000000000 0000000000 2017-04-122016-10-13 000000000000000 000000000000000 000000000000000000000000000040000000000000040 000000000000000000000000000000000000000000000 000000000000000 000000000000000000000000000000 000000000000000000000000000000000000000000000000000000000000 0000000000000000000000000000000000000000000000000000000 00000000000000000000 00000000000000000000 00000000000000000000 00000000000000000000 00000000000000000000 00000000000000000000 00000000000000000000       00000000000000000000000 00000000000000000000000 00000000000000000000000 00000000000000000000000    00000000000000000000000 00000000000000000000000 00000000000000000000000 00000000000000000000000 00000000000000000000
01489            1005           489            5              325265                             8                                  BVMFWINJ17                             BRBMEFWIN2210020000002000WIN                           J17 00000000000000000000            000000000000000000000000000000000000 0000000000 2017-04-122016-10-13 000000000000000 000000000000000 000000000000000000000000000004000000000000004 000000000000000000000000000000000000000000000 000000000000000 000000000000000000000000000000 000000000000000000000000000000000000000000000000000000000000 0000000000000000000000000000000000000000000000000000000 00000000000000000000 00000000000000000000 00000000000000000000 00000000000000000000 00000000000000000000 00000000000000000000 00000000000000000000       00000000000000000000000 00000000000000000000000 00000000000000000000000 00000000000000000000000    00000000000000000000000 00000000000000000000000 00000000000000000000000 00000000000000000000000 00000000000000000000
01489            1007           489            7              325281                             8                                  BVMFBGIV16                             BRBMEFBGI4350020003300000BGI                           V16 00000000000000000000            000000000000000000000000000000000000 0000000000 2016-10-312016-10-131000000000000480 000000000000000 000000000000000000000000000000000000000000000 000000000000000000000000000000000000000000000 00000000000000010000000000004800000000000000001000000000000480000000000000000000000000000000000000000000000 0000000000000000000000000240530400000000000000000000000D00000000000006811200D00000000000006811200 00000000000000000000 00000000000000000000D00000000000015048000 00000000000000000000 00000000000000000000       00000000000000000000000 00000000000000000000000 00000000000000000000000 00000000000000000000000    00000000000000000000000 00000000000000000000000 00000000000000000000000 00000000000000000000000 00000000000000000000
01489            1010           489            10             351022                             8                                  BVMFDOLJ18C004000                      BRBMEFCDJEV40030000500000DOL                           JL8300000000000000000000            000000000000000000000000040000000000C000000000022018-04-022016-10-131000000000000070 000000000000000 000000000000000000000000000040000000000000020 000000000000000000000000000000000000000000000 00000000000000010000000000000900000000000000001000000000000090000000000000000000000000000000000000000000000 0000000000000000000000000007404255000000000000000000000 00000000000000000000 00000000000000000000 00000000000000000000 00000000000000000000 00000000000000000000 00000000000000000000C00000000000013230000       00000000000000000000000 00000000000000000000000 00000000000000000000000 00000000000000000000000    00000000000000000000000 00000000000000000000000 00000000000000000000000 00000000000000000000000 00000000000000000000
01489            1010           489            10             401132                             8                                  BVMFDDIF17                             BRBMEFDDI1T10020000005000DDI                           F17 00000000000000000000            000000000000000000000000000000000000 0000000000 2017-01-022016-10-132000000000000500 000000000000000 000000000000000000000000000000000000000000000 000000000000000000000000000000000000000000000 00000000000000020000000000005000000000000000002000000000000500000000000000000000000000000000000000000000000 0000000000000000000000000000000000000000000007979188000C00000000000006909000C00000000000006909000 00000000000000000000 00000000000000000000C00000000000279859600 00000000000000000000 00000000000000000000       00000000000000000000000 00000000000000000000000 00000000000000000000000 00000000000000000000000    00000000000000000000000 00000000000000000000000 00000000000000000000000 00000000000000000000000 00000000000000000000
01489            1066           489            66             700020                             8                                  BVMFDI1F17                             BRBMEFD2I0150020000010000DI1                           F17 00000000000000000000            000000000000000000000000000000000000 0000000000 2017-01-022016-10-132000000000042300 000000000000000 000000000000000000000000000000000000000002400 000000000000000000000000000000000000000000000 00000000000000020000000000447000000000000000002000000000044700000000000000000000000000000000000000000000000 0000000000000000000000000000000000000000000434461337100C00000000000245805000D00000000000007191000 00000000000000000000C00000000000252996000C00000000006100977300 00000000000000000000 00000000000000000000       00000000000000000000000 00000000000000000000000 00000000000000000000000 00000000000000000000000    00000000000000000000000 00000000000000000000000 00000000000000000000000 00000000000000000000000 00000000000000000000
01489            1066           489            66             8601394                            8                                  BVMFDOLF17                             BRBMEFDOL3550020000500000DOL                           F17 00000000000000000000            000000000000000000000000000000000000 0000000000 2017-01-022016-10-131000000000001700 000000000000000 000000000000000000000000000040000000000000040 000000000000000000000000000000000000000000000 00000000000000010000000000017000000000000000001000000000001700000000000000000000000000000000000000000000000 0000000000000000000000002791219800000000000000000000000D00000000000024658500D00000000000024658500 00000000000000000000 00000000000000000000D00000000001650887000 00000000000000000000 00000000000000000000       00000000000000000000000 00000000000000000000000 00000000000000000000000 00000000000000000000000    00000000000000000000000 00000000000000000000000 00000000000000000000000 00000000000000000000000 00000000000000000000
01489            1066           489            66             8601923                            8                                  BVMFDOLX16                             BRBMEFDOL4050020000500000DOL                           X16 00000000000000000000            000000000000000000000000000000000000 0000000000 2016-11-012016-10-131000000000000500 000000000000000 000000000000000000000000000080000000000000080 000000000000000000000000000000000000000000000 00000000000000010000000000005000000000000000001000000000000500000000000000000000000000000000000000000000000 0000000000000000000000000806259750000000000000000000000D00000000000007220000D00000000000007220000 00000000000000000000 00000000000000000000D00000000000480627556 00000000000000000000 00000000000000000000       00000000000000000000000 00000000000000000000000 00000000000000000000000 00000000000000000000000    00000000000000000000000 00000000000000000000000 00000000000000000000000 00000000000000000000000 00000000000000000000
01489            1066           489            66             8609256                            8                                  BVMFDOLJ18P002350                      BRBMEFVDJB570030000500000DOL                           JLD100000000000000000000            000000000000000000000000023500000000P000000000022018-04-022016-10-131000000000000070 000000000000000 000000000000000000000000000040000000000000020 000000000000000000000000000000000000000000000 00000000000000010000000000000900000000000000001000000000000090000000000000000000000000000000000000000000000 0000000000000000000000000000307215000000000000000000000 00000000000000000000 00000000000000000000 00000000000000000000 00000000000000000000 00000000000000000000 00000000000000000000C00000000000013230000       00000000000000000000000 00000000000000000000000 00000000000000000000000 00000000000000000000000    00000000000000000000000 00000000000000000000000 00000000000000000000000 00000000000000000000000 00000000000000000000
02489            1069           489            69             489            1069           100000026709                       8                                  BVMFBRBOVACTF003BOVA11F                            0010202000000000012016-10-112016-10-1721016                              000000000000040000000000000002074400000000000000000051860000000000000000000000000000000000000000000000000000000000000000000000000000000000000000000000000000000000000000000000
02489            1069           489            69             489            1069           10031862                           8                                  BVMFBRBVMFACNOR3BVMF3                              0013401000000000012016-10-132016-10-1921016                              000000000001200000000000000020100000000000000000000016750000000000000000000000000000000000000000000000000000000000000000000000000000000000000000000000000000000000000000000000
02489            1069           489            69             489            1069           10031867                           8                                  BVMFBRBVMFACNOR3BVMF3F                             0013402000000000012016-10-112016-10-1721016                              000000000000040000000000000000440000000000000000000011000000000000000000000000000000000000000000000000000000000000000000000000000000000000000000000000000000000000000000000000
02489            1069           489            69             489            1069           10032339                           8                                  BVMFBRCOCABDR002COCA34                             0011601000000000012016-10-112016-10-1721016                              000000000001000000000000000158240000000000000000000158240000000000000000040000000000000006329600000000000000000015824000000000000000000000000000000000000000000000004000000000
02489            1069           489            69             489            1069           10032344                           8                                  BVMFBRCOCABDR002COCA34F                            0011602000000000012016-10-112016-10-1721016                              000000000000040000000000000006240000000000000000000156000000000000000000000000000000000000000000000000000000000000000000000000000000000000000000000000000000000000000000000000
02489            1069           489            69             489            1069           10033139                           8                                  BVMFBRVALEACNPA3VALE5                              0019201000000000012016-10-112016-10-1721016                              000000000001000000000000000014610000000000000000000014610000000000000000000000000000000000000000000000000000000000000000000000000000000000000000000000000000000000000000000000
02489            1069           489            69             489            1069           10033142                           8                                  BVMFBRVALEACNPA3VALE5F                             0019202000000000012016-10-112016-10-1721016                              000000000000040000000000000000588000000000000000000014700000000000000000000000000000000000000000000000000000000000000000000000000000000000000000000000000000000000000000000000
03489            1010           489            1010           9657852                            8                                  BVMFBRBMEFICF1K9ICFK14                             002ICF                           K14 2014-05-14000000000000000025590000002000000000000150
04489            1001           489            1              894            1              BREGIEACNOR900106SNF-158635453103000000055-CA_1_2   2020-04-03          221016                              0000000000100000000000000000000000000000000000000000000000000000000000000000000000000000000502230000000000000000000000000000000000000000000000000000000000000000000000000000005022300000000000000000000000000000
04489            1001           489            1              894            1              BRBMEFOZ400700100SNF-15873987745700000002r          2020-04-17          281019                              0000000049950000000000000000000000000000000000000000000000000000000000000000000000000012487500000000000000000000000000000000000000000000000000000000000000000000000000000000250000000000000000000000000000000000
05489            1001           489            1              100000000024                       8                                  BVMFBROIBRTNO003OIBR3T                             030OIBR                          BROIBRACNOR10000000105    2016-10-072017-01-19209060                             34118                              20000000000010000000000000010000000000000000000000000000000000000000000000000000000000000000000000000000000000000000010000000000000000000010000000000000000000001000000
05489            1001           489            1              100000000024                       8                                  BVMFBROIBRTNO003OIBR3T                             030OIBR                          BROIBRACNOR10000000105    2016-10-072017-01-19209062                             34119                              10000000000010000000000000010000000000000000000000000000000000000000000000000000000000000000000000000000000000000000000000000000000000000010000000000000000000001000000
05489            1001           489            1              100000000024                       8                                  BVMFBROIBRTNO003OIBR3T                             030OIBR                          BROIBRACNOR10000000105    2016-10-072017-01-19209064                             34117                              20000000000010000000000000010000000000000000000000000000000000000000000000000000000000000000000000000000000000000000010000000000000000000010000000000000000000001000000
05489            1001           489            1              100000000024                       8                                  BVMFBROIBRTNO003OIBR3T                             030OIBR                          BROIBRACNOR10000000105    2016-10-072017-02-20209061                             34118                              20000000000010000000000000010000000000000000000000000000000000000000000000000000000000000000000000000000000000000000010000000000000000000010000000000000000000001000000
05489            1001           489            1              100000000024                       8                                  BVMFBROIBRTNO003OIBR3T                             030OIBR                          BROIBRACNOR10000000105    2016-10-072017-02-20209063                             34115                              10000000000010000000000000010000000000000000000000000000000000000000000000000000000000000000000000000000000000000000000000000000000000000010000000000000000000001000000
05489            1001           489            1              100000007652                       8                                  BVMFBRCEEBTNO005CEEB3T                             030CEEB                          BRCEEBACNOR30000000167    2016-09-092017-01-2012                                 33492                              10000000000005550000000000005550000000000000000000000000000000000000000000000000000000000000000000000000000000000000000000000000000000000012000000000000000000000666000
05489            1001           489            1              100000007652                       8                                  BVMFBRCEEBTNO005CEEB3T                             030CEEB                          BRCEEBACNOR30000000167    2016-09-092017-01-2013                                 33491                              10000000000444440000000000444440000000000000000000000000000000000000000000000000000000000000000000000000000000000000000000000000000000000005000000000000000000022222000
05489            1001           489            1              100000007652                       8                                  BVMFBRCEEBTNO005CEEB3T                             030CEEB                          BRCEEBACNOR30000000167    2016-09-092017-01-2014                                 33492                              10000000000008890000000000008890000000000000000000000000000000000000000000000000000000000000000000000000000000000000000000000000000000000009000000000000000000000800100
05489            1001           489            1              100000007652                       8                                  BVMFBRCEEBTNO005CEEB3T                             030CEEB                          BRCEEBACNOR30000000167    2016-09-092017-01-2015                                 33494                              10000000000005400000000000005400000000000000000000000000000000000000000000000000000000000000000000000000000000000000000000000000000000000012000000000000000000000648000
05489            1001           489            1              100000007652                       8                                  BVMFBRCEEBTNO005CEEB3T                             030CEEB                          BRCEEBACNOR30000000167    2016-09-092017-01-2016                                 33496                              10000000000006100000000000006100000000000000000000000000000000000000000000000000000000000000000000000000000000000000000000000000000000000005000000000000000000000305000
05489            1001           489            1              100000010136                       8                                  BVMFBRAPTITNO008APTI3T                             030APTI                          BRAPTIACNOR60000000128    2016-09-122017-01-2371806376                           33547                              10000000000009150000000000009150000000000000000000000000000000000000000000000000000000000000000000000000000000000000000000000000000000000003333333000000000000000305000
05489            1001           489            1              100000010239                       8                                  BVMFBRCGRATNP001CGRA4T                             030CGRA                          BRCGRAACNPR90000000066    2016-09-272017-02-0770926766                           33928                              20000000000002770000000000002770000000000000000000000000000000000000000000000000000000000000000000000000000000000000002770000000000000000010018050000000000000000277500
05489            1001           489            1              100000010239                       8                                  BVMFBRCGRATNP001CGRA4T                             030CGRA                          BRCGRAACNPR90000000066    2016-09-272017-02-0770926776                           33926                              20000000000222220000000000222220000000000000000000000000000000000000000000000000000000000000000000000000000000000000222220000000000000000018000000000000000000039999600
05489            1001           489            1              100000010239                       8                                  BVMFBRCGRATNP001CGRA4T                             030CGRA                          BRCGRAACNPR90000000066    2016-09-272017-02-0770926786                           33923                              20000000000004440000000000004440000000000000000000000000000000000000000000000000000000000000000000000000000000000000004440000000000000000024027027000000000000001066800
05489            1001           489            1              100000010912                       8                                  BVMFBRTXRXTNP002TXRX4T                             030TXRX                          BRTXRXACNPR00000000142    2016-09-202017-02-0174417918                           33775                              10000000000311100000000000311100000000000000000000000000000000000000000000000000000000000000000000000000000000000000000000000000000000000007143040000000000000022222000
05489            1001           489            1              100000010912                       8                                  BVMFBRTXRXTNP002TXRX4T                             030TXRX                          BRTXRXACNPR00000000142    2016-09-202017-02-0174417928                           33778                              10000000000006220000000000006220000000000000000000000000000000000000000000000000000000000000000000000000000000000000000000000000000000000012863344000000000000000800100
05489            1001           489            1              100000010912                       8                                  BVMFBRTXRXTNP002TXRX4T                             030TXRX                          BRTXRXACNPR00000000142    2016-09-202017-02-0174417938                           33777                              10000000000003780000000000003780000000000000000000000000000000000000000000000000000000000000000000000000000000000000000000000000000000000017142857000000000000000648000
05489            1001           489            1              100000010912                       8                                  BVMFBRTXRXTNP002TXRX4T                             030TXRX                          BRTXRXACNPR00000000142    2016-09-202017-02-0174417948                           33777                              10000000000004270000000000004270000000000000000000000000000000000000000000000000000000000000000000000000000000000000000000000000000000000007142857000000000000000305000
05489            1001           489            1              100000010912                       8                                  BVMFBRTXRXTNP002TXRX4T                             030TXRX                          BRTXRXACNPR00000000142    2016-09-202017-02-0174417958                           33786                              10000000000003880000000000003880000000000000000000000000000000000000000000000000000000000000000000000000000000000000000000000000000000000017164948000000000000000666000
05489            1001           489            1              100000011608                       8                                  BVMFBRAFLTTNO003AFLT3T                             030AFLT                          BRAFLTACNOR10000000108    2016-09-062017-01-18333001                             33449                              10000000000005550000000000005550000000000000000000000000000000000000000000000000000000000000000000000000000000000000000000000000000000000012000000000000000000000666000
05489            1001           489            1              100000011608                       8                                  BVMFBRAFLTTNO003AFLT3T                             030AFLT                          BRAFLTACNOR10000000108    2016-09-062017-01-18333003                             33452                              10000000000008890000000000008890000000000000000000000000000000000000000000000000000000000000000000000000000000000000000000000000000000000009000000000000000000000800100
05489            1001           489            1              100000011608                       8                                  BVMFBRAFLTTNO003AFLT3T                             030AFLT                          BRAFLTACNOR10000000108    2016-09-062017-01-18333004                             33454                              10000000000005400000000000005400000000000000000000000000000000000000000000000000000000000000000000000000000000000000000000000000000000000012000000000000000000000648000
05489            1001           489            1              100000012719                       8                                  BVMFBRAZEVTNO002AZEV3T                             030AZEV                          BRAZEVACNOR00000000116    2016-09-132017-01-2472446757                           33615                              10000000000008890000000000008890000000000000000000000000000000000000000000000000000000000000000000000000000000000000000000000000000000000009000000000000000000000800100
05489            1001           489            1              100000012719                       8                                  BVMFBRAZEVTNO002AZEV3T                             030AZEV                          BRAZEVACNOR00000000116    2016-09-132017-01-2472446767                           33617                              10000000000005400000000000005400000000000000000000000000000000000000000000000000000000000000000000000000000000000000000000000000000000000012000000000000000000000648000
05489            1001           489            1              100000012719                       8                                  BVMFBRAZEVTNO002AZEV3T                             030AZEV                          BRAZEVACNOR00000000116    2016-09-132017-01-2472446777                           33623                              10000000000006100000000000006100000000000000000000000000000000000000000000000000000000000000000000000000000000000000000000000000000000000005000000000000000000000305000
05489            1001           489            1              100000012719                       8                                  BVMFBRAZEVTNO002AZEV3T                             030AZEV                          BRAZEVACNOR00000000116    2016-09-132017-01-2472940039                           33623                              10000000000444440000000000444440000000000000000000000000000000000000000000000000000000000000000000000000000000000000000000000000000000000005000000000000000000022222000
05489            1001           489            1              100000012719                       8                                  BVMFBRAZEVTNO002AZEV3T                             030AZEV                          BRAZEVACNOR00000000116    2016-09-132017-01-2472940049                           33624                              10000000000008890000000000008890000000000000000000000000000000000000000000000000000000000000000000000000000000000000000000000000000000000009000000000000000000000800100
05489            1001           489            1              100000012719                       8                                  BVMFBRAZEVTNO002AZEV3T                             030AZEV                          BRAZEVACNOR00000000116    2016-09-132017-01-2472940059                           33624                              10000000000005400000000000005400000000000000000000000000000000000000000000000000000000000000000000000000000000000000000000000000000000000012000000000000000000000648000
05489            1001           489            1              100000012719                       8                                  BVMFBRAZEVTNO002AZEV3T                             030AZEV                          BRAZEVACNOR00000000116    2016-09-132017-01-2472940069                           33625                              10000000000006100000000000006100000000000000000000000000000000000000000000000000000000000000000000000000000000000000000000000000000000000005000000000000000000000305000
05489            1001           489            1              100000013959                       8                                  BVMFBRBAHITNO003BAHI3T                             030BAHI                          BRBAHIACNOR10000000068    2016-09-142017-01-2624554044                           33686                              10000000000006100000000000006100000000000000000000000000000000000000000000000000000000000000000000000000000000000000000000000000000000000005000000000000000000000305000
05489            1001           489            1              100000013959                       8                                  BVMFBRBAHITNO003BAHI3T                             030BAHI                          BRBAHIACNOR10000000068    2016-09-142017-01-2624554054                           33687                              10000000000005550000000000005550000000000000000000000000000000000000000000000000000000000000000000000000000000000000000000000000000000000012000000000000000000000666000
05489            1001           489            1              100000014565                       8                                  BVMFBRALTSTNO006ALTS3T                             030ALTS                          BRALTSACNOR40000000104    2016-09-092017-01-200                                  33501                              10000000000005550000000000005550000000000000000000000000000000000000000000000000000000000000000000000000000000000000000000000000000000000012000000000000000000000666000
05489            1001           489            1              100000014565                       8                                  BVMFBRALTSTNO006ALTS3T                             030ALTS                          BRALTSACNOR40000000104    2016-09-092017-01-201                                  33500                              10000000000005550000000000005550000000000000000000000000000000000000000000000000000000000000000000000000000000000000000000000000000000000012000000000000000000000666000
05489            1001           489            1              100000014565                       8                                  BVMFBRALTSTNO006ALTS3T                             030ALTS                          BRALTSACNOR40000000104    2016-09-092017-01-202                                  33502                              10000000000005550000000000005550000000000000000000000000000000000000000000000000000000000000000000000000000000000000000000000000000000000012000000000000000000000666000
05489            1001           489            1              100000016749                       8                                  BVMFBRBALMTNO007BALM3T                             030BALM                          BRBALMACNOR50000000044    2016-09-152017-01-2760355885                           33712                              10000000000006100000000000006100000000000000000000000000000000000000000000000000000000000000000000000000000000000000000000000000000000000005000000000000000000000305000
05489            1001           489            1              100000016749                       8                                  BVMFBRBALMTNO007BALM3T                             030BALM                          BRBALMACNOR50000000044    2016-09-152017-01-2760355895                           33718                              10000000000005550000000000005550000000000000000000000000000000000000000000000000000000000000000000000000000000000000000000000000000000000012000000000000000000000666000
05489            1001           489            1              100000018178                       8                                  BVMFBRKROTTNO001KROT3T                             030KROT                          BRKROTACNOR90000000126    2016-09-122016-11-165                                  39309                              10000000000150000000000000150000000000000000000000000000000000000000000000000000000000000000000000000000000000000000000000000000000000000001146666000000000000001720000
05489            1001           489            1              100000018178                       8                                  BVMFBRKROTTNO001KROT3T                             030KROT                          BRKROTACNOR90000000126    2016-09-122016-12-056                                  39309                              10000000000063820000000000063820000000000000000000000000000000000000000000000000000000000000000000000000000000000000000000000000000000000001560122000000000000000995670
05489            1001           489            1              100000018178                       8                                  BVMFBRKROTTNO001KROT3T                             030KROT                          BRKROTACNOR90000000126    2016-09-132016-12-216                                  39307                              10000000000046500000000000046500000000000000000000000000000000000000000000000000000000000000000000000000000000000000000000000000000000000003733333000000000000001736000
05489            1001           489            1              100000018178                       8                                  BVMFBRKROTTNO001KROT3T                             030KROT                          BRKROTACNOR90000000126    2016-09-132017-01-2473256217                           33610                              10000000000009150000000000009150000000000000000000000000000000000000000000000000000000000000000000000000000000000000000000000000000000000003333333000000000000000305000
05489            1001           489            1              100000018178                       8                                  BVMFBRKROTTNO001KROT3T                             030KROT                          BRKROTACNOR90000000126    2016-09-132017-01-2473256227                           33615                              10000000000008320000000000008320000000000000000000000000000000000000000000000000000000000000000000000000000000000000000000000000000000000008004807000000000000000666000
05489            1001           489            1              100000018649                       8                                  BVMFBRBAUHTNP005BAUH4T                             030BAUH                          BRBAUHACNPR30000000111    2016-09-152017-01-2760355905                           33707                              10000000000444440000000000444440000000000000000000000000000000000000000000000000000000000000000000000000000000000000000000000000000000000005000000000000000000022222000
05489            1001           489            1              100000018649                       8                                  BVMFBRBAUHTNP005BAUH4T                             030BAUH                          BRBAUHACNPR30000000111    2016-09-152017-01-2760355915                           33716                              10000000000008890000000000008890000000000000000000000000000000000000000000000000000000000000000000000000000000000000000000000000000000000009000000000000000000000800100
05489            1001           489            1              1000842                            8                                  BVMFBRBMEFOZT005OZ10180                            005OZ1                           BRBMEFOZ4007000000010001802016-08-312017-07-072000015                            33378                              10000000000001000000000000001000000000000000000000000000000000000000000000000000000000000000000000000000000000000000000000000000000000000092500000000000000000231018700
05489            1001           489            1              1000842                            8                                  BVMFBRBMEFOZT005OZ10180                            005OZ1                           BRBMEFOZ4007000000010001802016-08-312017-07-072000037                            33379                              10000000000001000000000000001000000000000000000000000000000000000000000000000000000000000000000000000000000000000000000000000000000000000092500000000000000000231018700
05489            1001           489            1              1000842                            8                                  BVMFBRBMEFOZT005OZ10180                            005OZ1                           BRBMEFOZ4007000000010001802016-08-312017-07-072000071                            33371                              10000000000001000000000000001000000000000000000000000000000000000000000000000000000000000000000000000000000000000000000000000000000000000092500000000000000000231018700
05489            1001           489            1              1000842                            8                                  BVMFBRBMEFOZT005OZ10180                            005OZ1                           BRBMEFOZ4007000000010001802016-08-312017-07-072000110                            33375                              10000000000001000000000000001000000000000000000000000000000000000000000000000000000000000000000000000000000000000000000000000000000000000092500000000000000000231018700
05489            1001           489            1              1000842                            8                                  BVMFBRBMEFOZT005OZ10180                            005OZ1                           BRBMEFOZ4007000000010001802016-09-012017-07-072000090                            33415                              10000000000001000000000000001000000000000000000000000000000000000000000000000000000000000000000000000000000000000000000000000000000000000092500000000000000000231018700
05489            1001           489            1              1000842                            8                                  BVMFBRBMEFOZT005OZ10180                            005OZ1                           BRBMEFOZ4007000000010001802016-09-052017-07-072000099                            33444                              10000000000001000000000000001000000000000000000000000000000000000000000000000000000000000000000000000000000000000000000000000000000000000092500000000000000000231018700
05489            1001           489            1              1000842                            8                                  BVMFBRBMEFOZT005OZ10180                            005OZ1                           BRBMEFOZ4007000000010001802016-09-062017-07-072000203                            33457                              10000000000001000000000000001000000000000000000000000000000000000000000000000000000000000000000000000000000000000000000000000000000000000092500000000000000000231018700
05489            1001           489            1              1000842                            8                                  BVMFBRBMEFOZT005OZ10180                            005OZ1                           BRBMEFOZ4007000000010001802016-09-082017-07-072000014                            33469                              10000000000001000000000000001000000000000000000000000000000000000000000000000000000000000000000000000000000000000000000000000000000000000092500000000000000000231018700
06489            1509           489            803233         2016-10-13100000038605                       8                                  BVMFOESL        2020091400200840930001-1                                              3100000108099                       8                                  BVMFBRBBSEACNOR50000000116091BBSE3                              2020-09-142020-10-162020-09-1521016                              000000000000000000070000000000000001000000000010000000000000010000000000000000000000000000000000000000000000000000000000000000000000000000000000000000000000001000000000000000000700000011000000000000000000250000003         803233         223                                                                3611           1509           000000000000000000000000003                                   21                0000000000000000                            000000000000000000000000000
07489            1001           489            1              609300075                          2016-09-282016-09-282016-09-300000000010000000DOL         Dolar comercial                                             T2PTAX Compra                                                 000000000001111001S90300          STMC
07489            1001           489            1              609300121                          2016-09-282016-09-282016-12-290000000010000000DOL         Dolar comercial                                             T1PTAX Venda                                                  000000777777777682S90300          STMC
08489            1001           489            1              609286684                          2016-09-092016-09-092016-09-30IBV         Indice Bovespa                                              FCI   Opo Flexvel de compra de Ibovespa                        PFPreo Fechamento                                            20000000000575000000000LTIMO PREO                                                00000000000000200L489            00000000000650000000000US
09489            1001           489            1              609286684                          TIU   KNOCK IN AND UP                                             00000000000087319285292016-09-21
09489            1001           489            1              609286684                          TID   KNOCK IN N DOWN                                             00000000000003521100002016-09-28
10489            1010           489            10             512131031                          2015-12-222015-12-222015-12-222016-12-05                                                              IGM         IGP-M                                                       01000000000000000001000000000000000011555474100000000084135328T1PTAX Venda                                                  DOL         Dolar comercial                                             01000000000489            +0000110000000CC+00000000031419413SCM
10489            1010           489            10             512131830                          2015-12-232015-12-232015-12-232016-10-21                                                              PRE         Pr                                                         01000000000000000001497681600000000015918086800000000124510404T1PTAX Venda                                                  REU         Euro Comercial                                              01000000000489            +0000084200000CC+00000000034670464SEP
10489            1010           489            10             512131694                          2015-12-232015-12-232015-12-232016-12-05T1PTAX Venda                                                  REU         Euro Comercial                                              01000000000000000002322725140000000026242452500000000333164513T1PTAX Venda                                                  DOL         Dolar comercial                                             01000000000489            +0000000000000CC-00000000070739988SCE
10489            1010           489            10             512131724                          2015-12-232015-12-232015-12-232016-12-05T1PTAX Venda                                                  DOL         Dolar comercial                                             01000000000000000001000000000000000008263300100000000115145696                                                              IAP         IPCA                                                        01000000000489            +0000020000000CC-00000000032512695SCL
10489            1010           489            10             512131058                          2015-12-222015-12-222015-12-222016-12-05T1PTAX Venda                                                  DOL         Dolar comercial                                             01000000000000000001000000000000000008283754000000000100311042T1PTAX Venda                                                  JPY         Iene Comercial                                              01000000000489            +0000000000000CC-00000000017473502SCY
10489            1010           489            10             512131023                          2015-12-222015-12-222015-12-222016-12-05                                                              IAP         IPCA                                                        01000000000000000001000000000000000011519339000000000084135328T1PTAX Venda                                                  DOL         Dolar comercial                                             01000000000489            +0000110000000CC+00000000031058062SCL
10489            1010           489            10             512131007                          2015-12-222015-12-222015-12-222016-12-05T1PTAX Venda                                                  DOL         Dolar comercial                                             01000000000000000001000000000000000008413532800000000115193390                                                              IAP         IPCA                                                        01000000000489            +0000020000000CC-00000000031058062SCL
10489            1010           489            10             512131686                          2015-12-232015-12-232015-12-232016-12-05T2PTAX Compra                                                 DOL         Dolar comercial                                             01000000000000000002322725140000000033310273500000000262352166T2PTAX Compra                                                 REU         Euro Comercial                                              01000000000489            +0000036400000CC+00000000070750569SCE
10489            1010           489            10             512131805                          2015-12-232015-12-232015-12-232016-10-21T1PTAX Venda                                                  REU         Euro Comercial                                              01000000000000000001497681600000000012451040400000000159180868                                                              PRE         Pr                                                         01000000000489            +0000000000000CC-00000000034670464SEP
10489            1010           489            10             609300695                          2016-09-282016-09-282016-09-282016-09-30PFPreo Fechamento                                            IBV         Indice Bovespa                                              01000000000000000001000000000000000010058237700000000100052009                                                              PRE         Pr                                                         01000000000489            +0000040000000CC+00000000000530368SNP
12489            1010           489            10                                                                      2016-10-132016-10-1410000Dbito por Compras                                          D0000000000065004120000000000000000000000000000000000000000000000000000000000000000000000
12489            1010           489            10                                                                      2016-10-132016-10-1410000Dbito por Compras                                          D0000000000069823370000000000000000000000000000000000000000000000000000000000000000000000
12489            1010           489            10                            CPFE                          BRCPFEACNOR02016-10-132016-10-1410000Dbito por Compras                                          D0000000000005190697600000000000000000000000000000000000000000000000000000000000000000000
12489            1010           489            10                            RPMG                          BRRPMGACNOR92016-10-132016-10-1410003Estorno Crdito por Vendas                                  D0000000000000364710000000000000000000000000000000000000000000000000000000000000000000000
12489            1001           489            1                             DOL                           BRBMEFDOL4052016-10-132016-10-1410048Ajuste                                                      D0000000000000002364000000000000000000000000000000000000000000000000000000000000000000000
12489            1001           489            1                             DI1                           BRBMEFD1I3N82016-10-132016-10-1410048Ajuste                                                      D0000000000000011146400000000000000000000000000000000000000000000000000000000000000000000
12489            1001           489            1                             DI1                           BRBMEFD1I2P52016-10-132016-10-1410048Ajuste                                                      D0000000000000000236400000000000000000000000000000000000000000000000000000000000000000000
12489            1045           489            45                            BRFS                          BRBRFS3P09572016-10-132016-10-1410044Prmio                                                      D0000000000000364180000000000000000000000000000000000000000000000000000000000000000000000
12489            1045           489            45                            BRFS                                      2016-10-132016-10-1410044Prmio                                                      D0000000000002236400000000000000000000000000000000000000000000000000000000000000000000000
12489            1010           489            10                                                                      2016-10-132016-10-1412088Taxa Emolumento Renda Varivel Mercado Vista                D0000000000000000364200000000000000000000000000000000000000000000000000000000000000000000
12489            1010           489            10                                                                      2016-10-132016-10-1412088Taxa Emolumento Renda Varivel Mercado Vista                D0000000000000000931700000000000000000000000000000000000000000000000000000000000000000000
12489            1010           489            10                                                                      2016-10-132016-10-1412120Taxa de Liquidao Renda Varivel Mercado Vista             D0000000000000005244800000000000000000000000000000000000000000000000000000000000000000000
13489            1056           489            56                                                                      2016-10-132016-10-1712108Emolumento Renda Varivel Provisrio                        D0000000000000108096200000000000000000000000000000000000000000000000000000000000000000000
13489            1056           489            56                                                                      2016-10-132016-10-1712188Emolumentos Renda Varivel Mercado Vista Daytrade ProvisrioD0000000000000006904000000000000000000000000000000000000000000000000000000000000000000000
13489            1056           489            56                                                                      2016-10-132016-10-1712108Emolumento Renda Varivel Provisrio                        D0000000000000238854200000000000000000000000000000000000000000000000000000000000000000000
13489            1041           489            41                            BEEF                          BRBEEFACNOR62016-10-132016-10-1710000Dbito por Compras                                          D0000000000000010380000000000000000000000000000000000000000000000000000000000000000000000
13489            1001           489            1                             CIEL                          BRCIELACNOR32016-10-132016-10-1710000Dbito por Compras                                          D0000000000000032190000000000000000000000000000000000000000000000000000000000000000000000
13489            1001           489            1                             ELET                          BRELETACNPB72016-10-132016-10-1710000Dbito por Compras                                          D0000000000000025100000000000000000000000000000000000000000000000000000000000000000000000
13489            1006           489            6                             CYRE                          BRCYREACNOR72016-10-132016-10-1710000Dbito por Compras                                          D0000000000000010830000000000000000000000000000000000000000000000000000000000000000000000
13489            4              489            4                             TOTS                          BRTOTSACNOR82016-10-132016-10-1710000Dbito por Compras                                          D0000000000000030120000000000000000000000000000000000000000000000000000000000000000000000
13489            1044           489            44                                                                      2016-10-132016-10-1712191Estorno Taxa Liq. Renda Varivel Vista Daytrade Provisrio  C0000000000000012140700000000000000000000000000000000000000000000000000000000000000000000
13489            1044           489            44                                                                      2016-10-132016-10-1712120Taxa de Liquidao Renda Varivel Mercado Vista             D0000000000000066974900000000000000000000000000000000000000000000000000000000000000000000
13489            1003           489            3                                                                       2016-10-122016-10-2012136Taxa Liquidao Renda Varivel Provisrio                   D0000000000000044881000000000000000000000000000000000000000000000000000000000000000000000
13489            1031           489            31                                                                      2016-10-122016-10-2012190Taxa Liquidao Renda Varivel Vista Daytrade Provisrio    D0000000000000003697400000000000000000000000000000000000000000000000000000000000000000000
13489            1031           489            31                            TRPN                          BRTRPNACNOR02016-10-132016-10-1710002Crdito por Vendas                                          C0000000000002257500000000000000000000000000000000000000000000000000000000000000000000000
14489            1010           489            1010           2016-09-1700000000000000000000000000006500000000000000010494400000031                                 2100000055028                       8                                  BVMFCART3T                             0000000030CART                          BRCARTTNO0080000000263200000056701                       8                                  BVMFCART3                              BRCARTACNOR800000002632016-12-16000000000126018                                                                 400000000000000000000000000001049442016-10-14          0000000000000000002446244640000000000000000000000233100000    2           00000000000000000000070000                               0000000000000000000000000000000000000000000000000000000000000000000000000000000000000000000000000000000000000000000000000000000000000000489            1010           0000000000000000000                    0000000000000000
14489            1509           489            803233         2016-01-140000000000000000000000002008409300000000000000100000000002020091400200840930001-1           3100000038605                       8                                  BVMFOTCSECLEND                         0000000091OTC                                       0000000000100000108099                       8                                  BVMFBBSE3                              BRBBSEACNOR500000001162020-10-16000000000121016                              2020-10-09-1-202                   000000000001000000000000000000000002020-10-132016-10-130000000000000000000007000000000000000000000000000000000000     32016-10-14000000000000000000250000003              803233         20000190000000000000000693410000000000000000000000007000000000000000000000000000000000000000000000000000000000000000000000000006934100000489            1509           00000000000000000004 23                0000000000000000
15489            1509           489            803233         2016-01-140000000000000000000000002008409300000000000000100000000002020091400200840930001-1           3100000038605                       8                                  BVMFOTCSECLEND                         0000000091OTC                                       0000000000100000108099                       8                                  BVMFBBSE3                              BRBBSEACNOR500000001162020-10-16000000000121016                              2020-10-09-1-202                   000000000001000000000000000000000002020-10-132016-10-130000000000000007000000000000000000000000000000000000      32016-10-14000000000000000000250000003              803233         000000000000000000070000003               489            1509           4  3                0000000000000000
15489            1010           489            1010           2016-06-250000000000000000000000000000065300000000000000006510000006979                               2100000055028                       8                                  BVMFCART3T                             0000000030CART                          BRCARTTNO0080000000263200000056701                       8                                  BVMFCART3                              BRCARTACNOR800000001052016-12-14000000000126018                              33                                 200000000000065100000000000000000002016-10-162016-10-130000000000000016040640000000000000000000000246400000    22           00000000000000000000135000                              00000000000000000000000000                489            1010                               0000000000000000
16489            1001           489      1              2016-10-122016-10-130         NSE-1-0000000000001-01                                          LQV-1,LQV-000000000004-C                                        0000026018BRTTUBUN50080000000115D0000000000028000000000000000000000000000156000000000000000000000000004368000000000000000000028000000000000000000000000000000000000000000000000000000028000000000000000000000001
16489            1001           489      1              2016-10-122016-10-130         NSE-1-0000000000002-01                                          LQV-1,LQV-000000000005-V                                        0000026018BRTTUBUN50080000000136C0000000000026000000000000000000000000000515000000000000000000000000013390000000000000000000026000000000000000000000000000000000000000000000000000000026000000000000000000000000
16489            1001           489      1              2016-10-122016-10-130         NSE-1-0000000000003-01                                          LQV-1,LQV-000000000006-V                                        0000026018BRTTUBUN50080000000112C0000000000227000000000000000000000000000016500000000000000000000000003745500000000000000000227000000000000000000000000000000000000000000000000000000227000000000000000000000000
16489            1001           489      1              2016-10-122016-10-130         NSE-1-0000000000004-01                                          LQV-1,LQV-000000000007-C                                        0000026018BRTTUBUN50080000000112D0000000000284000000000000000000000000000016500000000000000000000000004686000000000000000000284000000000000000000000000000000000000000000000000000000284000000000000000000000003
16489            1001           489      1              2016-10-122016-10-130         NSE-1-0000000000005-01                                          LQV-1,LQV-000000000008-C                                        0000026018BRTTUBUN50080000000112C0000000000227000000000000000000000000000017154390000000000000000000003894000000000000000000227000000000000000000000000000000000000000000000000000000227000000000000000000000001
16489            4              489      4              2016-10-122016-10-130         LQV-000000000001-V                                              LQV                                                             0000021016BRTTUBUN50080000000214D0000000000300000000000000000000000000000369400000000000000000000000110820000000000000000000300000000000000000000000000000000000000000000000000000000300000000000000000000000000
16489            4              489      4              2016-10-122016-10-130         LQV-000000000001-V                                              LQV                                                             0000021016BRTTUBUN50080000000372D0000000001400000000000000000000000000000093000000000000000000000000130200000000000000000001400000000000000000000000000000000000000000000000000000000000000000000000000000000001
16489            4              489      4              2016-10-122016-10-130         LQV-000000000002-C                                              LQV                                                             0000021016BRTTUBUN50080000000118C0000000012600000000000000000000000000000291384790000000000000000003671448400000000000000012600000000000000000000000000000000000000000000000000000012600000000000000000000000001
16489            1006           489      6              2016-10-122016-10-130         LQV-000000000003-C                                              LQV                                                             0000021016BRTTUBUN50080000000143C0000000007100000000000000000000000000000438067280000000000000000003110277700000000000000007100000000000000000000000000000000000000000000000000000007100000000000000000000000000
17489            1509           489      803233         2020-10-082020-10-132020-10-09NSE-1-1602270516373-1                                                                                                           0000021016BRBBSEACNOR50000000116C000000001000000000000000000000000000000010000000000000000000000000100000000000000000000001000000001
17489            1010           489      1010           2016-10-112016-10-142016-11-11NSE-1-0000000000101-01                                                                                                          0000026018BRTTUBUN50080000000120C000000000168600000000000000000000000000000000000000000000000000000000000000000000000000000000000001
17489            1010           489      1010           2016-10-112016-10-142016-11-11NSE-1-0000000000102-01                                                                                                          0000026018BRTTUBUN50080000000120D000000000831400000000000000000000000000000000000000000000000000000000000000000000000000000000000001
17489            1010           489      1010           2016-10-112016-10-142016-11-11NSE-1-0000000000103-01                                                                                                          0000026018BRTTUBUN50080000000111C000000000215100000000000000000000000000000000000000000000000000000000000000000000000000000215100001
17489            1010           489      1010           2016-10-112016-10-142016-11-11NSE-1-0000000000104-01                                                                                                          0000026018BRTTUBUN50080000000111C000000000225900000000000000000000000000000000000000000000000000000000000000000000000000000225900001
17489            1009           489      9              2016-10-112016-10-162016-11-11NSE-1-0000000000105-01                                                                                                          0000026018BRTTUBUN50080000000111D000000000084900000000000000000000000000000000000000000000000000000000000000000000000000000084900000
17489            1009           489      9              2016-10-112016-10-152016-11-11NSE-1-0000000000106-01                                                                                                          0000026018BRTTUBUN50080000000111C000000000094100000000000000000000000000000000000000000000000000000000000000000000000000000094100000
17489            1009           489      9              2016-10-112016-10-152016-11-11NSE-1-0000000000107-01                                                                                                          0000026018BRTTUBUN50080000000105C000000000065100000000000000000000000000000000000000000000000000000000000000000000000000000000000000
17489            1009           489      9              2016-10-112016-10-142016-11-11NSE-1-0000000000108-01                                                                                                          0000026018BRTTUBUN50080000000105D000000000034900000000000000000000000000000000000000000000000000000000000000000000000000000000000001
18489            1001           489            1              2016-10-133   100000059834                       8                                  BVMF0001CL  BALM3               000000201600000492812          00000000000000000000000000000000000000000000060000000000000000006000000000000000000000000000000000000000000000000BRBALMACNOR523906     000000000000000000000000000000000000000000489            1001
18489            1001           489            1              2016-10-133   100000059919                       8                                  BVMF0001CL  CTKA3               000000201600000497612          00000000000000000000000000000000000000000000030000000000000000003000000000000000000000000000000000000000000000000BRCTKAACNOR023906     000000000000000001203000000000000000000000489            1001
18489            1001           489            1              2016-10-133   100000060224                       8                                  BVMF0001CL  CMSA3               000000201600000522512          00000000000000000000000000000000000000000010500000000000000001050000000000000000000000000000000000000000000000000BRCMSAACNOR823906     000000000000000105000000000000000000000000489            1001
18489            1001           489            1              2016-10-133   100000060249                       8                                  BVMF0001CL  CCXC3               000000201600000489022          00000000000000000000000000000000000000000000000000000000000000000000000000000000000000000000000000000000000000000BRCCXCACNOR523906     000000000000000000000000000000000000000000489            1001
18489            1002           489            2              2016-10-133   100000059834                       8                                  BVMF0001CL  BALM3               000000201600000492812          00000000000000000000000000000000000000000000320000000000000000032000000000000000000000000000000000000000000000000BRBALMACNOR523906     000000000000000008399000000000000000000000123456         22
18489            1002           489            2              2016-10-133   100000059919                       8                                  BVMF0001CL  CTKA3               000000201600000497612          00000000000000000000000000000000000000000000020000000000000000002000000000000000000000000000000000000000000000000BRCTKAACNOR023906     000000000000000000782000000000000000000000123456         22
18489            1002           489            2              2016-10-133   100000060224                       8                                  BVMF0001CL  CMSA3               000000201600000522512          00000000000000000000000000000000000000000038950000000000000003895000000000000000000000000000000000000000000000000BRCMSAACNOR823906     000000000000000389500000000000000000000000123456         22
18489            1002           489            2              2016-10-134   100000057619                       8                                  BVMF0001CL  210100              0000002016000005184112017-03-0700000000000000060000000000000000000000000005000000000000000000500000000000000000010000000000000000000000000000000BRSTNCLF1QW4          000000000000395082310000000000000000000000
18489            1002           489            2              2016-10-138   10000001                           8                                  BVMF0001CL  Real - Mensageria   000000201600000518811          00000000010399710000000000000000000000999971000000000000099997100000000000000400000000000000000000000000000000000                      000000000009999710000000000000000000000000
18489            1004           489            4              2016-10-131   100000059842                       8                                  BVMF0001CL  CF Liq D+1          0000002016000004833122016-10-1500000000000000000000000000000000000000000400000000000000000040000000000000000000000000000000000000000000000000000                      000000000000004000000000000000000000000000
18489            1004           489            4              2016-10-134   100000057619                       8                                  BVMF0001CL  210100              0000002016000005184122017-03-0700000000000000000000000000000000000000000001000000000000000000100000000000000000000000000000000000000000000000000BRSTNCLF1QW4          000000000000079062266000000000000000000000
18489            1004           489            4              2016-10-138   10000001                           8                                  BVMF0001CL  Real - Netting      000000201600000473111          00000000015300000000000000000000000001530000000000000000153000000000000000000000000000000000000000000000000000000                      000000000015300000000000000000000000000000
19489            1001           489            1              2016-10-130001+000000000040158283600000000004015716330000000000000000000000000000000000000001062030000000000000000000000000000000000000040156163300000-0000000000401571633
19489            1002           489            2              2016-10-130001+000000000000000000000000000000000000000000000000000000000000000000000000103951909910000000000000000000000000000000000000000000000000000+0000000010394801491
19489            1005           489            5              2016-10-130001+000000000000078427600000000000007742760000000000000000000000000000000000000000000000000000000000007720410000000000000000000000000000000-0000000000000774276
19489            1043           489            43             2016-10-130001+000000000000000909900000000000000090990000000000000000000000000000000000000000000000000000000000000090990000000000000000000000000000000-0000000000000009099
19489            1004           489            4              2016-10-130001+000000001671065771600000000013315854510000000000000000000000000000000000153830622660000000000012946885880000000000000000003688686300000-0000000001331585451
20489            1001           489            1              000000000020009509901042016-10-04                                            489    1              489    1001           489    1001           10023867                           8                                  BVMFBRBOVACTF0030102BOVA11      0000000000000000001000000000000000000121016000001000002016-10-052016-12-12212
20489            1001           489            1              000000000020009562701032016-10-06489    1              489    1                                                          489    1001           10023867                           8                                  BVMFBRBOVACTF0030102BOVA11      0000000000000000001000000000000000000121016000001000002016-10-072016-12-12212
20489            1001           489            1              000000000020009604401032016-10-07489    1              489    1                                                          489    1001           10033139                           8                                  BVMFBRVALEACNPA30192VALE5       0000000000000000004000000000000000000221016000005000002016-10-102016-12-12112
20489            1001           489            1              000000000020009604701042016-10-07                                            489    1              489    1001           489    1001           10023867                           8                                  BVMFBRBOVACTF0030102BOVA11      0000000000000000001000000000000000000121016000001000002016-10-102016-12-12212
20489            1001           489            1              000000000020009617601042016-10-07                                            489    1              489    1001           489    1001           10029567                           8                                  BVMFBRPETRACNPR60185PETR4       0000000000000000010000000000000000001021016003000000002016-10-102016-10-31112123456
20489            1001           489            1              000000000020009617801032016-10-07489    1              489    1                                                          489    1001           10029567                           8                                  BVMFBRPETRACNPR60185PETR4       0000000000000000010000000000000000000921016003000000002016-10-102016-10-31112123456
20489            1001           489            1              000000000020009617901042016-10-07                                            489    1              489    1001           489    1001           10029567                           8                                  BVMFBRPETRACNPR60185PETR4       0000000000000000010000000000000000000821016003000000002016-10-102016-10-31112123456
20489            1001           489            1              000000000020009792501042016-10-13                                            489    1              489    1001           489    1001           10033139                           8                                  BVMFBRVALEACNPA30192VALE5       0000000000000000001000000000000000000121016000015000002016-10-142016-12-09112
21489            4              489            4                             201606170036027619-1               10033139                           8                                  BVMFBRVALEACNPA3001922016-10-132016-10-120000000000000000000000000000000000000000000000000000000000000000000000000000020000000000000000000000000000006000000000000000000000000000000000000000002016-10-10
21489            4              489            4                             201606170036025545-1               10033139                           8                                  BVMFBRVALEACNPA3001922016-10-132016-10-120000000000000000010000000000000000000000000000000000000000000000000000000000010000000000000000000000000000006000000000000000000000000000060000000000002016-10-10
21489            4              489            4                             201606170036028656-1               10033139                           8                                  BVMFBRVALEACNPA3001922016-10-132016-10-120000000000000000000000000000000000000000000000000000000000000000000000000000020000000000000000000000000000006000000000000000000000000000000000000000002016-10-10
21489            1010           489            1010                          201606170036029765-1               10033139                           8                                  BVMFBRVALEACNPA3001922016-10-132016-10-120000000000000000000000000000000000000000000000000000000000000000000000000000010000000000000000000000000000006000000000000000000000000000000000000000002016-10-10
22489            1001           489            1                             201603200006000001-1               4489            1001           21016                              2016-11-02200000060236                       8                                  BVMFBRTTIKACNOR0001112016-09-150000000000000001790000000000000000000000000000000093314000000000000000000000167000000000002016-09-162017-01-042017-01-072017-01-10000000000000000688500000000000000000000000000000000000000000000000000000000688500000000000BRTTIKD03OR100110TTIK3                              0000000000000000000120000000002017-01-11000000000000000000000000000762000000000000000000000000000167BRTTIKR03OR100110                                   0000000000000000000000000000002017-01-2800000000000000000000000000000011
22489            1004           489            4                             201605150006000002-1               4489            1001           21016                              2017-01-28200000060236                       8                                  BVMFBRTTIKACNOR0001112016-09-150000000000000001790000000000000000000000000000000093314000000000000000000000167000000000002016-09-162017-01-042017-01-072017-01-10000000000000000688500000000000000000000000000000000000000000000000000000000688500000000000BRTTIKD03OR100110TTIK3                              0000000000000000000120000000002017-01-11000000000000000000000000000762000000000000000000000000000167BRTTIKR03OR100110                                   0000000000000000000000000000002017-01-2800000000000000000000000000000011
22489            1010           489            1010                          201608300006000003-1               4489            1010           21016                              2016-12-15200000060236                       8                                  BVMFBRTTIKACNOR0001112016-09-150000000000000001790000000000000000000000000000000093314000000000000000000000167000000000002016-09-162017-01-042017-01-072017-01-10000000000000000688500000000000000000000000000000000000000000000000000000000688500000000000BRTTIKD03OR100110TTIK3                              0000000000000000000120000000002017-01-11000000000000000000000000000762000000000000000000000000000167BRTTIKR03OR100110                                   0000000000000000000000000000002017-01-2800000000000000000000000000000011
23489            1001           489            1                             201610130020052389-1               0489            1001           21016                              TRPL3                              BRTRPLACNOR40016319                                                2016-10-130000000000000001000000000000000000000000000015000000000000000000000000000000000000000000000000000000000015000000000000002016-10-172
23489            1001           489            1                             201610130020029942-1               0489            1001           21016                              CSAB4                              BRCSABACNPR80016319                                                2016-10-130000000000000000990000000000000000000000000014850000000000000000000000000000000000000000000000000000000014850000000000002016-10-172
24489            1001           489            1                             10   201611110019869659-1               4489            1001           22012                              IBHU5                              BRIBHUACNOR200129000000000000000280000000000000000000000000000001689000000000000000000000000000000000000000201611110019869659-1               IBHU5                              BRIBHUACNOR2001300000000000000002800000000000000000000000000000016890000000000000000000000000000000000000000000000000000000000000000000002016-09-14
24489            1001           489            1                             10   201611110019894408-2               4489            1001           22012                              IBHU5                              BRIBHUACNOR800111000000000000000520000000000000000000000000000000906000000000000000000000000000000000000000201611110019894408-2               IBHU5                              BRIBHUACNOR8001120000000000000005200000000000000000000000000000009060000000000000000000000000000000000000000000000000000000000000000000002016-09-14
24489            1001           489            1                             10   201611110019838981-1               4489            1001           22012                              POST2                              BRPOSTACNOR200129000000000000000200000000000000000000000000000001744000000000000000000000000000000000000000201611110019838981-1               POST2                              BRPOSTACNOR2001300000000000000002000000000000000000000000000000017440000000000000000000000000000000000000000000000000000000000000000000002016-10-31
24489            1010           489            1010                          10   201611110019895331-1               4489            1010           22012                              POST2                              BRPOSTACNOR200129000000000000000030000000000000000000000000000001738000000000000000000000000000000000000000201611110019895331-1               POST2                              BRPOSTACNOR2001300000000000000000300000000000000000000000000000017380000000000000000000000000000000000000000000000000000000000000000000002016-10-31
24489            1003           489            3                             10   201611110019876361-3               4489            1003           22012                              POST2                              BRPOSTACNOR200129000000000000000020000000000000000000000000000001738000000000000000000000000000000000000000201611110019876361-3               POST2                              BRPOSTACNOR2001300000000000000000200000000000000000000000000000017380000000000000000000000000000000000000000000000000000000000000000000002016-10-31
24489            1003           489            3                             10   201611110019972009-1               4489            1003           22012                              POST2                              BRPOSTACNOR200129000000000000000110000000000000000000000000000001702000000000000000000000000000000000000000201611110019972009-1               POST2                              BRPOSTACNOR2001300000000000000001100000000000000000000000000000017020000000000000000000000000000000000000000000000000000000000000000000002016-10-31
24489            1003           489            3                             10   201611110019978974-1               4489            1003           22012                              IBHU5                              BRIBHUACNOR800111000000000000000200000000000000000000000000000000935000000000000000000000000000000000000000201611110019978974-1               IBHU5                              BRIBHUACNOR8001120000000000000002000000000000000000000000000000009350000000000000000000000000000000000000000000000000000000000000000000002016-09-14
25489            1001           0489            1001           21016CARTEIRA LIVRE BRCYREACNOR7131CYRELA REALTON  EC  NM0000000002500000002016100720161010001067538BRCYRED03OR8131CYRELA REALTDIR ORD NM0000000001250000000000000000000000000000000002016110700000003000000000000001000
25489            1001           0489            1001           28010EMPREST. ATIVOSBRCYREACNOR7131CYRELA REALTON  EC  NM0000000000872500002016100720161010001067538BRCYRED03OR8131CYRELA REALTDIR ORD NM0000000000436250000000000000000000000000000002016110700000003000000000000001000
25489            1003           6489            1003           21016CARTEIRA LIVRE BRSUZBACNPA3121SUZANO PAPELPNA     N10000000001000000002016040620160407001067196BRSUZBD01PA8121SUZANO PAPELDIR P/A N10000000000021950000000000000000000000000000000000000000000007000000000000001000
25489            1003           6489            1003           21016CARTEIRA LIVRE BRSUZBACNPA3122SUZANO PAPELPNA ES  N10000000001000000002016041120160412001067206BRSUZBD02PA6122SUZANO PAPELDIR P/A N10000000000003010000000000000000000000000000000000000000001056700000000000001000
25489            1070           5489            1070           21016CARTEIRA LIVRE BRBRFSACNOR8114BRF SA      ON      NM0000000100000000002016050420160505001067232BRBRFSD01OR3114BRF SA      DIR ORD NM0000000000150380000000000000000000000000000000000000000000000015000000000001000
25489            1070           5489            1070           21016CARTEIRA LIVRE BRCYREACNOR7131CYRELA REALTON  EC  NM0000000150000000002016100720161010001067538BRCYRED03OR8131CYRELA REALTDIR ORD NM0000000075000000000000000000000000000000000002016110700000003000000000000001000
25489            1070           5489            1070           21016CARTEIRA LIVRE BRSMTOACNOR3110SAO MARTINHOON      NM0000000100000000002016050520160506001067233BRSMTOD02OR6110SAO MARTINHODIR ORD NM0000000100000000000000000000000000000000000000000000000000037000000000000001000
26489            1001           0489            1001           21016CARTEIRA LIVRE BRCCXCACNOR5106CCX CARVAO  ON      NM00000000001000000020160928201609290010675152016201610050000000000010000000000001010DIVIDENDO           00000000000000000000000000000000000000000000000000001000000
26489            1001           0489            1001           21016CARTEIRA LIVRE BRPARCACNOR3103PARCORRETORAON      NM00000000000000050020160913201609140010674692016201609300000000000000050000000001013JUROS SOBRE CAPITAL 00000000000000000000000000000000000000000000000000000005000
26489            1001           0489            1001           21016CARTEIRA LIVRE BRPARCACNOR3103PARCORRETORAON      NM00000000000000050020160913201609140010674952016201609300000000000000000450000001014RENDIMENTO          00000000000000000000000000000000000000000000000000000000045
26489            1001           0489            1001           21016CARTEIRA LIVRE BRBESADBS009140BAESA       D11       00000000099950000020160803201608040010674102016201609130000000049975000000000001014RENDIMENTO          20160615000000100000000000000000000000000000000004997500000
26489            1001           0489            1001           21016CARTEIRA LIVRE BRBNDPDBS0C7106BNDESPAR    D63     MB00000000000000300020160803201608040010674112016201609130000000000003000000000001094RESGATE RENDA FIXA  20160620000001000000000000000000000000000000000000000300000
26489            1001           0489            1001           21016CARTEIRA LIVRE BRBSCSCRI6W0135BRAZILIAN SCCP3 ER    00000002002000000020160701201607040010673182016201609130000000040040000000000001014RENDIMENTO          20160620000001000000000000000000000000000000000004004000000
26489            1001           0489            1001           21016CARTEIRA LIVRE BRBSCSCRI6W0137BRAZILIAN SCCP3 ERM   00000007999999600020160705201607060010673272016201609280000000039999998000000001094RESGATE RENDA FIXA  20160620000001000000000000000000000000000000000003999999800
26489            1001           0489            1001           21016CARTEIRA LIVRE BRCCXCACNOR5106CCX CARVAO  ON      NM00000000030056395520160928201609290010675152016201610050000000000300563950000001010DIVIDENDO           00000000000000000000000000000000000000000000000000030056395
26489            1001           0489            1001           21016CARTEIRA LIVRE BRCPSEACNOR3100COPEL SER   ON        00000000108064300020160923201609260010674962016000000000000000001080643000000001097RESGATE RENDA VARIAV00000000000000000000000000000000000000000000000000108064300
26489            1001           0489            1001           21016CARTEIRA LIVRE BRSBSPACNOR5153SABESP      ON      NM00000000000150000020160722201607250010673572016201609130000000000023370000000001097RESGATE RENDA VARIAV00000000000000000000000000000000000000000000000000002337000
26489            1002           7489            1002           21016CARTEIRA LIVRE BRBSCSCRI6W0135BRAZILIAN SCCP3 ER    00000002000000000020160701201607040010673182016201609130000000040000000000000001014RENDIMENTO          20160620000001000000000000000000000000000000000004000000000
26489            1002           7489            1002           21016CARTEIRA LIVRE BRBSCSCRI6W0137BRAZILIAN SCCP3 ERM   00000008001999600020160705201607060010673272016201609280000000040009998000000001094RESGATE RENDA FIXA  20160620000001000000000000000000000000000000000004000999800
26489            4              1489            4              21016CARTEIRA LIVRE BRKROTACNOR9120KROTON      ON  EDB NM00000000000006600020160801201608020010674002016201609130000000000000131340000001013JUROS SOBRE CAPITAL 00000000000000000000000000000000000000000000000000000013134
26489            4              1489            4              21016CARTEIRA LIVRE BRMULTACNOR5114MULTIPLAN   ON      N200000000000000000020160418201604190010672572016201609130000000000000000000000001093RESGATE PARCIAL REND00000000000000000000000000000000000000000000000000000000000
26489            4              1489            4              21016CARTEIRA LIVRE BRMULTACNOR5114MULTIPLAN   ON      N200000000000000000020160418201604190010672672016201609130000000000000000000000001093RESGATE PARCIAL REND00000000000000000000000000000000000000000000000000000000000
26489            4              1489            4              21016CARTEIRA LIVRE BRPARCACNOR3102PARCORRETORAON  EDG NM00000000000060600020160805201608080010674212016201609130000000000000606000000001010DIVIDENDO           00000000000000000000000000000000000000000000000000000060600
26489            1003           6489            1003           21016CARTEIRA LIVRE BRBSCSCRI6W0137BRAZILIAN SCCP3 ERM   00000005000000000020160705201607060010673272016201609280000000025000000000000001094RESGATE RENDA FIXA  20160620000001000000000000000000000000000000000002500000000
26489            1003           6489            1003           21016CARTEIRA LIVRE BRCSRNACNOR0157COSERN      ON        00000005900020000020160722201607250010673522016201609130000000130980444000000001010DIVIDENDO           00000000000000000000000000000000000000000000000013098044400
26489            1003           6489            1003           21016CARTEIRA LIVRE BRKROTACNOR9121KROTON      ON  EX  NM00000000000006800020160805201608080010674192016201609230000000000000146200000001010DIVIDENDO           00000000000000000000000000000000000000000000000000000014620
26489            1003           6489            1003           21016CARTEIRA LIVRE BRKROTACNOR9121KROTON      ON  EX  NM00000000000014620020160805201608080010675132016201609280000000000000014620000001098RENDIMENTO LIQUIDO  00000000000000000000000000000000000000000000000000000001462
26489            1003           6489            1003           21016CARTEIRA LIVRE BRPARCACNOR3102PARCORRETORAON  EDG NM00000000000060600020160805201608080010674212016201609130000000000000606000000001010DIVIDENDO           00000000000000000000000000000000000000000000000000000060600
