00IMBARQ00200100935BVMF    0000000000009350000000012022040620220406
50935            77             935            77             2022-04-052022-04-060000000000NSE-1-1649160581554-2                                                                                                           28010     BRVALEACNOR00000000196D00000000000000000000116000000000000000000400000000000000000000000000464000000001 5    000000000004000000000000000000000000004640000000000000000000000000000000000000000000000000000000000000000000000000000000000000000000000000000000000000000000004000000000000000000000000002220000000000000000000935_CST_77                                                                 01
50935            77             935            77             2022-04-052022-04-060000000000NSE-1-1649167000353-1                                                                                                           21016     BRPETRACNPR60000000187C00000000000000000000004000000000000000000000000000000000000000000000000000000001 1    000000000000000000000000000000000000000000000000000000000000000000000000000000000000000000000000000000000000000000000000000000000000000000000000000000000000000000000000000000000000000002220000000000000000000935_CST_77                                                                 01
50935            77             935            77             2022-04-042022-04-060000000000NSE-1-1649196005822-1                                                                                                           21016     BRVALEACNOR00000000196C00000000000000000000097940000000000000002800000000000000000000000002742320000001 1002 000000000000000000000000000000000000000000000000000000000000000000000000000000000000000000000000000000000000280000000000000000000000000274232000000000000000028000000000000000002800000002220000000000000000000935_CST_77                                                                 01
50935            77             935            77             2022-04-042022-04-060000000000NSE-1-1649196005824-1                                                                                                           22012     BRBBSEACNOR50000000124D00000000000000000000025800000000000000009200000000000000000000000002373600000001 5    000000000092000000000000000000000000023736000000000000000000000000000000000000000000000000000000000000000000000000000000000000000000000000000000000000000000092000000000000000000000000002220000000000000000000935_CST_77                                                                 01
50935            77             935            77             2022-04-042022-04-060000000000NSE-1-1649196005825-1                                                                                                           22012     BRLAMEACNPR60000000209D00000000000000000000005000000000000000003600000000000000000000000000180000000001 5    000000000036000000000000000000000000001800000000000000000000000000000000000000000000000000000000000000000000000000000000000000000000000000000000000000000000036000000000000000000000000002220000000000000000000935_CST_77                                                                 01
50935            77             935            77             2022-04-042022-04-060000000000NSE-1-1649196005831-1                                                                                                           22012     BRPETRACNPR60000000187D00000000000000000000018930635000000000003600000000000000000000000000681502000001 5    000000000036000000000000000000000000006815020000000000000000000000000000000000000000000000000000000000000000000000000000000000000000000000000000000000000000036000000000000000000000000002220000000000000000000935_CST_77                                                                 01
99IMBARQ00200100935BVMF    0000000000009350000000012022040600000000620220406
