00IMBARQ0090010000935BVMF    0000000000009350000000012021080420210804
80935            215052         935            215052         110 002EUR                               002021-08-052021-08-06000000000000000001500000000000000000011500000000000000000000000115000000000000000000000001210000000000000000000000022600000
80935            215052         935            215052         126 002CR1                               002021-08-052021-08-06000000000000000003000000000000000000006800000000000000000000000068000000000000000000000000720000000000000000000000013600000
80935            215052         935            215052         126 002ICF                               002021-08-052021-08-06000000000000000003000000000000000000006800000000000000000000000068000000000000000000000000360000000000000000000000006800000
80935            215052         935            215052         126 002KFE                               002021-08-052021-08-06000000000000000003000000000000000000006800000000000000000000000068000000000000000000000000360000000000000000000000006800000
80935            215052         935            215052         126 004KFE                               002021-08-052021-08-06000000000000000003000000000000000000006800000000000000000000000068000000000000000000000000110000000000000000000000002000000
80935            215052         935            215052         126 004KFE                               452021-08-052021-08-06000000000000000003000000000000000000006800000000000000000000000068000000000000000000000000360000000000000000000000006800000
80935            215052         935            215052         16  001OZ1                               002021-08-052021-08-06000000000000000001500000000000000000005900000000000000000000000059000000000000000000000000530000000000000000000000009700000
80935            215052         935            215052         16  001OZ2                               002021-08-052021-08-06000000000000000001500000000000000000005900000000000000000000000059000000000000000000000000020000000000000000000000000400000
80935            215052         935            215052         16  001OZ3                               002021-08-052021-08-06000000000000000001500000000000000000005900000000000000000000000059000000000000000000000000000000000000000000000000000100000
80935            215052         935            215052         16  002OZ1                               002021-08-052021-08-06000000000000000001500000000000000000005900000000000000000000000059000000000000000000000000530000000000000000000000009700000
80935            215052         935            215052         16  003OZ1                               002021-08-052021-08-06000000000000000001500000000000000000005900000000000000000000000059000000000000000000000000160000000000000000000000002900000
80935            215052         935            215052         16  005OZ1                               002021-08-052021-08-06000000000000000001500000000000000000005900000000000000000000000059000000000000000000000000530000000000000000000000009700000
80935            215052         935            215052         17  002BRI                               002021-08-052021-08-06000000000000000001900000000000000000019700000000000000000000000197000000000000000000000000430000000000000000000000007900000
80935            215052         935            215052         17  002IND                               002021-08-052021-08-06000000000000000001900000000000000000019700000000000000000000000197000000000000000000000000430000000000000000000000007900000
80935            215052         935            215052         17  002IR1                               002021-08-052021-08-06000000000000000001900000000000000000019700000000000000000000000197000000000000000000000000860000000000000000000000015800000
80935            215052         935            215052         17  002WI1                               002021-08-052021-08-06000000000000000001900000000000000000019700000000000000000000000197000000000000000000000000160000000000000000000000003200000
80935            215052         935            215052         17  002WIN                               002021-08-052021-08-06000000000000000001900000000000000000019700000000000000000000000197000000000000000000000000080000000000000000000000001600000
80935            215052         935            215052         19  002DOL                               002021-08-052021-08-06000000000000000001900000000000000000010800000000000000000000000108000000000000000000000001820000000000000000000000033800000
80935            215052         935            215052         19  002DR1                               002021-08-052021-08-06000000000000000001900000000000000000010800000000000000000000000108000000000000000000000003640000000000000000000000067600000
80935            215052         935            215052         19  002FRP                               002021-08-052021-08-06000000000000000001900000000000000000010800000000000000000000000108000000000000000000000001820000000000000000000000033800000
80935            215052         935            215052         19  002WD1                               002021-08-052021-08-06000000000000000001900000000000000000010800000000000000000000000108000000000000000000000000720000000000000000000000013600000
80935            215052         935            215052         19  002WDO                               002021-08-052021-08-06000000000000000001900000000000000000010800000000000000000000000108000000000000000000000000360000000000000000000000006800000
80935            215052         935            215052         210 002EUR                               002021-08-052021-08-06000000000000000001500000000000000000011500000000000000000000000115000000000000000000000002430000000000000000000000045000000
80935            215052         935            215052         226 002CR1                               002021-08-052021-08-06000000000000000003000000000000000000006800000000000000000000000068000000000000000000000002420000000000000000000000044800000
80935            215052         935            215052         226 002ICF                               002021-08-052021-08-06000000000000000003000000000000000000006800000000000000000000000068000000000000000000000001210000000000000000000000022400000
80935            215052         935            215052         226 002KFE                               002021-08-052021-08-06000000000000000003000000000000000000006800000000000000000000000068000000000000000000000001210000000000000000000000022400000
80935            215052         935            215052         226 004KFE                               002021-08-052021-08-06000000000000000003000000000000000000006800000000000000000000000068000000000000000000000000360000000000000000000000006800000
80935            215052         935            215052         226 004KFE                               452021-08-052021-08-06000000000000000003000000000000000000006800000000000000000000000068000000000000000000000001210000000000000000000000022400000
80935            215052         935            215052         26  001OZ1                               002021-08-052021-08-06000000000000000001500000000000000000005900000000000000000000000059000000000000000000000001050000000000000000000000019400000
80935            215052         935            215052         26  001OZ2                               002021-08-052021-08-06000000000000000001500000000000000000005900000000000000000000000059000000000000000000000000040000000000000000000000000800000
80935            215052         935            215052         26  001OZ3                               002021-08-052021-08-06000000000000000001500000000000000000005900000000000000000000000059000000000000000000000000000000000000000000000000000100000
80935            215052         935            215052         26  002OZ1                               002021-08-052021-08-06000000000000000001500000000000000000005900000000000000000000000059000000000000000000000001050000000000000000000000019400000
80935            215052         935            215052         26  003OZ1                               002021-08-052021-08-06000000000000000001500000000000000000005900000000000000000000000059000000000000000000000000320000000000000000000000005800000
80935            215052         935            215052         26  005OZ1                               002021-08-052021-08-06000000000000000001500000000000000000005900000000000000000000000059000000000000000000000001050000000000000000000000019400000
80935            215052         935            215052         27  002BRI                               002021-08-052021-08-06000000000000000001900000000000000000019700000000000000000000000197000000000000000000000000690000000000000000000000012800000
80935            215052         935            215052         27  002IND                               002021-08-052021-08-06000000000000000001900000000000000000019700000000000000000000000197000000000000000000000000690000000000000000000000012800000
80935            215052         935            215052         27  002IR1                               002021-08-052021-08-06000000000000000001900000000000000000019700000000000000000000000197000000000000000000000001380000000000000000000000025600000
80935            215052         935            215052         27  002WI1                               002021-08-052021-08-06000000000000000001900000000000000000019700000000000000000000000197000000000000000000000000280000000000000000000000005000000
80935            215052         935            215052         27  002WIN                               002021-08-052021-08-06000000000000000001900000000000000000019700000000000000000000000197000000000000000000000000140000000000000000000000002500000
80935            215052         935            215052         29  002DOL                               002021-08-052021-08-06000000000000000001900000000000000000010800000000000000000000000108000000000000000000000001910000000000000000000000035600000
80935            215052         935            215052         29  002DR1                               002021-08-052021-08-06000000000000000001900000000000000000010800000000000000000000000108000000000000000000000003820000000000000000000000071200000
80935            215052         935            215052         29  002FRP                               002021-08-052021-08-06000000000000000001900000000000000000010800000000000000000000000108000000000000000000000001910000000000000000000000035600000
80935            215052         935            215052         29  002WD1                               002021-08-052021-08-06000000000000000001900000000000000000010800000000000000000000000108000000000000000000000000760000000000000000000000014200000
80935            215052         935            215052         29  002WDO                               002021-08-052021-08-06000000000000000001900000000000000000010800000000000000000000000108000000000000000000000000380000000000000000000000007100000
99IMBARQ0090010000935BVMF    0000000000009350000000012021080400000004420210804
